:100000000C94900B0C94AD0B0C94AD0B0C94AD0BAD
:100010000C94AD0B0C94AD0B0C94AD0B0C94C8165A
:100020000C94AD0B0C94AD0B0C94AD0B0C940F37E2
:100030000C94AD0B0C94AD0B0C94AD0B0C94AD0B60
:100040000C94F8360C94AD0B0C94AD0B0C94AD0BDA
:100050000C94AD0B0C94AD0B0C94AD0B0C94AD0B40
:100060000C94AD0B0C94AD0B0C160E161116151648
:1000700017161B161E16361639163C163F16561640
:100080005616561656165616561656165616421624
:1000900056165616451648165616561656164B162A
:1000A0004E165116561654165F2863286A28702873
:1000B0006D286D287328050A0605060A050A060933
:1000C000060A050A0609060A050A0609060A050AB5
:1000D0000605060A050A06050A06090A06090A06A9
:1000E000000010000000100E000010010000900041
:1000F0000000900000009000001890000018900090
:10010000001808010018040E001802000018010071
:10011000009800000058000000380000FE1F00009A
:1001200000380000005800001E9804002218070044
:1001300022180700229807001E18880F2218900026
:1001400022189000220090001E00900700009000EE
:1001500000009000000090000000900F00000000E0
:10016000000010000000900F0000900000009000C0
:100170000000900000009007001890000018900008
:10018000001889000018870F0018070000180F00DA
:10019000009800000058000000380000FE1F00001A
:1001A00000380000005800001E98000022180100CE
:1001B00022180200221804001E18080E221810012E
:1001C00022189000220090001E0090000000900075
:1001D00000009000000010010000100E0000000060
:1001E0000000100000009003000090040000900840
:1001F000000090080000900800309008003090083F
:1002000000F69F0400368003003600001C06000044
:1002100022060000023602000236030002F61F002A
:100220003A36130022361200220610001C06100077
:100230000036100000361000FEF71F07003090084F
:10024000003090000000900000001007000010082F
:1002500000001008000090080000100700000000D7
:10026000000010000000100700009008000090003F
:100270000000900000001007003010080030100847
:10028000FEF79F0800361007003610001C0610000D
:1002900022061000023611000236130002F61F007B
:1002A0003A36030022360100220600001C06000038
:1002B000003600000036000000F69F030030900476
:1002C000003090080000900800009008000090089E
:1002D000000090080000900400009003000000005F
:1002E000000010000000900300009004000090083F
:1002F000000090080000900800309008003090083E
:1003000000F69F0400368003003600001C36000013
:1003100022360000023602000236030002F61F00F9
:100320003A36130022361200223610001C36100016
:100330000036100000361000FEF71F07003090084E
:10034000003090000000900000001007000010082E
:1003500000001008000090080000100700000000D6
:10036000000010000000100700009008000090003E
:100370000000900000001007003010080030100846
:10038000FEF79F0800361007003610001C361000DC
:1003900022361000023611000236130002F61F004A
:1003A0003A36030022360100223600001C360000D7
:1003B000003600000036000000F69F030030900475
:1003C000003090080000900800009008000090089D
:1003D000000090080000900400009003000000005E
:1003E000000010000000900300009004000090083E
:1003F000000090080000900800309008003090083D
:100400000030900400F09F031C30000022300000F8
:100410000230000002300000023000003A300000DC
:1004200022300000223000001C30000000310000AB
:1004300000330000FEFF1F0000331007003190085A
:10044000003090000000900000001007000010082D
:1004500000001008000090080000100700000000D5
:10046000000010000000100700009008000090003D
:100470000000900000001007003010080032100843
:1004800000339008FEFF1F07003300000032000019
:100490001C3000002230000002300000023000005A
:1004A000023000003A30000022300000223000000C
:1004B0001C30000000F01F0000309003003090045A
:1004C000003090080000900800009008000090089C
:1004D000000090080000900400009003000000005D
:1004E000000010000000100E00001001000090003D
:1004F000000090000000900000309000003090005C
:10050000003610010036080E0036040000360200E6
:100510000036010000B6000000760000FE37000043
:100520000076000000B600001C36090022360E00DE
:1005300002360E0002360F000236900F3A3090005D
:1005400022309000220090001C00900700009000D4
:1005500000009000000090000000900F00000000DC
:10056000000010000000900F0000900000009000BC
:1005700000009000000090070030900000309000D4
:100580000036920000368E0F00360E0000361E0038
:100590000036010000B6000000760000FE370000C3
:1005A0000076000000B600001C3601002236020072
:1005B00002360400023608000236100E3A301001EE
:1005C00022309000220090001C009000000090005B
:1005D00000009000000010010000100E000000005C
:1005E00000007100000089000000890000008900FF
:1005F0000000F90000008900000089000000890067
:10060000000001000000010000FFFF0100FEFF00EC
:1006100000FC7F0000F83F0000F01F0000E00F002A
:100620001CC00700228003000200010002FFFF013E
:100630003AFFFF0122800100224001001C20E1005E
:100640000010110000080900FE0709000000090061
:1006500000000900000011000000E100000000009F
:1006600000000100000049000000490000004900AE
:10067000000049000000490000004900000001009E
:1006800000000100C0FFFF07C0FFFF070008FE03D6
:10069000001CFE03001CFC01003EFC01003EF800B3
:1006A000007FF800007F70008CFF700092FF200038
:1006B000C2FFFF07DAFFFF07120801000C04010068
:1006C0000002110000011100FE00110000001100E5
:1006D00000001100000011000000010000000000F7
:1006E00000007100000089000000890000008900FE
:1006F000FE07F90000088900001089001C2089000D
:10070000224001000280010002FFFF013AFEFF00CB
:1007100022FC7F0022F83F001CF01F0000E00F00C9
:1007200000C00700008003000000010000FFFF017F
:1007300000FFFF0100000100000001000000E100D7
:10074000000011000000090000000900000009007D
:1007500000000900000011000000E100000000009E
:1007600000001000000090040000900400009004BD
:1007700000009004000090040030900400309004C9
:100780003E30100040F21F00803300008033000034
:10079000C0330000003400003E380000023000008A
:1007A00002300000023000001E3000000230000065
:1007B0000230000002F01F003E3010000030100137
:1007C00000301001000010010000100100001001B5
:1007D00000001001000010010000100000000000E7
:1007E000FF010203040506076F7071FFFFFFFFFFA3
:1007F000FFFFFFFFFFFFFFFFFFFFFFFFFFFFFFFF09
:10080000101112131415161718191A1B1C1D1E1F70
:10081000202122232425262728292A2B2C2D2E2F60
:10082000303132333435363738393A3B3C3D3E3F50
:10083000404142434445464748494A4B4C4D4E4F40
:10084000505152535455565758595A5B5C5D5E5F30
:10085000606162636465666768696A6B6C6D6EFF90
:10086000FFFFFFFFFFFFFFFFFFFFFFFFFFFFFFFF98
:10087000FFFFFFFFFFFFFFFFFFFFFFFFFFFFFFFF88
:10088000FFFFFFFFFFFFFFFFFFFFFFFFFFFFFFFF78
:100890000FFFFFFFFF05FFFFFFFFFFFFFFFFFFFF52
:1008A000FFFFFFFF08FFFFFFFFFFFFFFFFFFFFFF4F
:1008B000FFFFFFFFFFFF09FFFFFFFFFF0AFFFF0B27
:1008C000FFFFFFFF0CFFFFFFFFFFFFFFFFFFFFFF2B
:1008D000FFFFFFFFFFFF0DFFFFFFFFFF0EFFFFFF0B
:1008E0000000000000000000000000000000000008
:1008F00000000000000000000000000000000000F8
:1009000000000000820086008E009E00BE00FF03F3
:10091000BE009E008E0086008200000000000000E5
:10092000000000008200C200E200F200FA00FF03B3
:10093000FA00F200E200C2008200000000000000A5
:10094000000000008601860186018601860187037A
:1009500086018601860186018601000000000000F4
:10096000000078008400020102010201020102017C
:100970008400480048004800860100000000000094
:1009800000000000000000000000820082008200E1
:10099000820082008200C600BA000200020002004B
:1009A00000000000FE03020002000200020003003B
:1009B0000200020002000200FE030000000000002E
:1009C00000000000FF010001000100010001000320
:1009D0000001000100010001FF0100000000000013
:1009E00044000000000010003800280048004400C7
:1009F0008400FE000201020101020000000000006C
:100A0000440000000000780084000201020102019D
:100A100002010201020184007800000000000000D1
:100A200044000000000082008200820082008200F8
:100A300082008200820044003C00000000000000B0
:100A400000001C00220022002200120012001200EE
:100A500022004200820082007200000000000000BC
:100A6000000000002400000000003C0040004000A6
:100A70007800440042006200DC000000000000003A
:100A80000000000024000000000038004400820044
:100A90008200820082004400380000000000000054
:100AA000000000002400000000004200420042005C
:100AB00042004200420062005C00000000000000B2
:100AC00000001000280010000000000000000000DE
:100AD0000000000000000000000000000000000016
:100AE0000000000000000000000000000000000006
:100AF00000000000000000000000000000000000F6
:100B00000000100010001000100010001000100075
:100B10001000100000001000100000000000000095
:100B200000004400440044004400000000000000B5
:100B300000000000000000000000000000000000B5
:100B400000009000900048004800FE01480024008A
:100B5000FF01240024001200120000000000000029
:100B60002000F8002C002400240028003000600041
:100B7000E000A000A000A4007C0020000000000015
:100B800000000E021101910051004E0020001000E3
:100B9000C801280224022202C10100000000000056
:100BA0000000380044004400640038000C001202C9
:100BB000310221014101C200FC01000000000000DF
:100BC00000001000100010001000000000000000E5
:100BD0000000000000000000000000000000000015
:100BE00000008001600030001000080008000800CC
:100BF00008000800080010003000600080010000BC
:100C000000000600180030002000400040004000B6
:100C100040004000400020003000180006000000A6
:100C2000000010001000D6006C00280038002800DA
:100C300000000000000000000000000000000000B4
:100C40000000000000000000000010001000100074
:100C50001000FF0110001000100000000000000054
:100C60000000000000000000000000000000000084
:100C7000000000000000180018001000100008001C
:100C80000000000000000000000000000000000064
:100C9000FC00000000000000000000000000000058
:100CA0000000000000000000000000000000000044
:100CB0000000000000001800180000000000000004
:100CC0000000000180008000400040002000200063
:100CD00010001000080008000400040002000000DA
:100CE000000038004400440082008200820082003C
:100CF0008200820044004400380000000000000030
:100D0000000010001E001000100010001000100065
:100D10001000100010001000FE0000000000000095
:100D200000003E0042004000400040002000200043
:100D300010000800040002007E0000000000000017
:100D400000003C00400040004000400038004000EF
:100D500040004000400040003C0000000000000057
:100D6000000020003000280028002400220022007B
:100D70002100FF00200020002000000000000000F3
:100D800000007C000400040004001C00200040005F
:100D900040004000400020001C0000000000000057
:100DA000000078000400040002003A0046008200BF
:100DB0008200820082004400380000000000000031
:100DC0000000FE0080004000200020001000100005
:100DD00008000800080004000400000000000000F3
:100DE00000007C0082008200820064001800640021
:100DF00042008200820042003C000000000000002F
:100E00000000380044008200820082008200C4009A
:100E1000B8008000400040003C00000000000000DE
:100E20000000000000000000000018001800000092
:100E30000000000000001800180000000000000082
:100E40000000000000000000000018001800000072
:100E5000000000000000180018001000100008003A
:100E6000000000000000000000000001C000300091
:100E70000C000C003000C000000100000000000069
:100E80000000000000000000000000000000FE0163
:100E900000000000FE010000000000000000000053
:100EA0000000000000000000000002000C00300004
:100EB000C000C00030000C00020000000000000074
:100EC00000007E00C2008200800040002000100070
:100ED00008000800000008000800000000000000F2
:100EE000000078008400E200930089008900C900B6
:100EF000C900E900B20346007C00000000000000C9
:100F000000000000000010003800280048004400E5
:100F10008400FE0002010201010200000000000046
:100F20000000000000007E008200820042003E00BF
:100F300042008200820082007E000000000000006B
:100F4000000000000000F80086000200010001001F
:100F50000100010002000600F8000000000000008F
:100F60000000000000003E0042008200820082007B
:100F700082008200820042003E000000000000006B
:100F8000000000000000FE0002000200020002005B
:100F90007E00020002000200FE00000000000000CF
:100FA000000000000000FE0002000200020002003B
:100FB0007E000200020002000200000000000000AB
:100FC000000000000000F0010C010400020002001B
:100FD000C201020104010C01F00100000000000048
:100FE0000000000000008200820082008200820077
:100FF000FE008200820082008200000000000000EB
:10100000000000000000FE001000100010001000A2
:101010001000100010001000FE0000000000000092
:101020000000000000007800400040004000400048
:1010300040004000400040003C0000000000000074
:1010400000000000000082004200220012000E009A
:101050000A0012006200820002010000000000008D
:101060000000000000000200020002000200020076
:101070000200020002000200FE000000000000006A
:10108000000000000000C300C300C700A500A500C9
:10109000AD0099009900810081000000000000006F
:1010A000000000000000820086008A008A00920092
:1010B0009200A200A200C200820000000000000016
:1010C000000000000000780084000201020102011B
:1010D000020102010201840078000000000000000B
:1010E0000000000000007E008200820082004200BA
:1010F0003E000200020002000200000000000000AA
:1011000000000000000078008400020102010201DA
:101110000201020102018400780040008001000009
:101120000000000000003E00420042004200220099
:101130001E00120022004200820000000000000099
:10114000000000000000FC00820002000600180001
:10115000600080008000C2003E000000000000002F
:10116000000000000000FF0110001000100010003F
:10117000100010001000100010000000000000001F
:1011800000000000000082008200820082008200D5
:1011900082008200820044003C0000000000000049
:1011A000000000000000010202010201840084002E
:1011B00044004800480030003000000000000000FB
:1011C00000000000000001020102120132013201A0
:1011D0002A014A01CC00CC0084000000000000007D
:1011E00000000000000001020201840048003000FD
:1011F00030004800840002010102000000000000ED
:1012000000000000000001020201840044002800E8
:10121000100010001000100010000000000000007E
:10122000000000000000FE010001800040002000DE
:101230001000080004000200FE0100000000000091
:101240000000F80008000800080008000800080076
:10125000080008000800080008000800F800000066
:101260000000020004000400080008001000100044
:1012700020002000400040008000800000010000AD
:1012800000003E0020002000200020002000200060
:101290002000200020002000200020003E00000050
:1012A0000000200020003000500058004800880056
:1012B0008400840002010000000000000000000023
:1012C000000000000000000000000000000000001E
:1012D00000000000000000000000FF03000000000C
:1012E00010002000000000000000000000000000CE
:1012F00000000000000000000000000000000000EE
:10130000000000000000000000003C004000400021
:101310007800440042006200DC0000000000000091
:10132000000002000200020002007A004600820073
:1013300082008200820046003A00000000000000A7
:1013400000000000000000000000F800040002009F
:101350000200020002000400F8000000000000008B
:1013600000008000800080008000B800C40082007F
:10137000820082008200C400BC0000000000000067
:1013800000000000000000000000780084008200DF
:10139000FE00020002000400F8000000000000004F
:1013A0000000E001180008000800FE010800080025
:1013B0000800080008000800080000000000000005
:1013C00000000000000000000000B800C40082001F
:1013D000820082008200C400BC00800040003C000B
:1013E0000000020002000200020072008A00860073
:1013F0008200820082008200820000000000000063
:10140000000018001800000000001E00100010006E
:10141000100010001000100010000000000000007C
:10142000000030003000000000003C0020002000E0
:1014300020002000200020002000200020001E00AE
:10144000000002000200020002008200620012009E
:101450000E000A003200420082000000000000007E
:1014600000003C0020002000200020002000200080
:1014700020002000200020002000000000000000CC
:1014800000000000000000000000CD003301110149
:1014900011011101110111011101000000000000F2
:1014A0000000000000000000000072008E008600B6
:1014B00082008200820082008200000000000000A2
:1014C000000000000000000000003800440082001E
:1014D000820082008200440038000000000000000A
:1014E000000000000000000000007A0046008200BA
:1014F00082008200820046003A00020002000200E0
:1015000000000000000000000000B800C4008200DD
:10151000820082008200C400BC0080008000800045
:1015200000000000000000000000E40094008C00B7
:101530000400040004000400040000000000000097
:10154000000000000000000000007C00020002001B
:101550000C003000400042003E000000000000008F
:1015600000000000000008000800FE00080008005D
:101570000800080008000800F0000000000000005B
:101580000000000000000000000042004200420095
:1015900042004200420062005C00000000000000C7
:1015A0000000000000000000000001018200820035
:1015B0004200440024002800180000000000000041
:1015C00000000000000000000000010211023201D2
:1015D00032014A014A01CC008400000000000000F2
:1015E000000000000000000000000201840048002C
:1015F00030003000480084000201000000000000BC
:1016000000000000000000000000010202010201D1
:1016100084004C0048003000300010000800070033
:1016200000000000000000000000FE0180004000FB
:101630002000100008000400FE010000000000006F
:101640000000E0001000100010001000100010005A
:101650000C0010001000100010001000E00000004E
:10166000000010001000100010001000100010000A
:1016700010001000100010001000100010000000FA
:1016800000001C002000200020002000200020007E
:10169000C000200020002000200020001C000000CE
:1016A00000000000000000000000000000000E022A
:1016B0003102C10100000000000000000000000035
:1016C000FF03EF03E103EF03EF03EF03EF03EF0388
:1016D000EF03EF03EF03EF030103FF03FF03FF0338
:1016E000FF03C103BD03BF03BF03BF03DF03DF036A
:1016F000EF03F703FB03FD038103FF03FF03FF0376
:10170000FF03C303BF03BF03BF03BF03C703BF037D
:10171000BF03BF03BF03BF03C303FF03FF03FF03F5
:1017200011241FBECFEFD8E0DEBFCDBF11E0A0E097
:10173000B1E0E0EDFBE702C005900D92A231B107E8
:10174000D9F722E0A2E1B1E001C01D92A230B207B8
:10175000E1F70E94D93A0C94E63D0C940000909178
:10176000B901981303C08091BC0108959091BA010A
:10177000891303C08091BD0108958091BE01089531
:1017800080E00E94811E81E00E94811E82E00E9412
:10179000811E8DE30E94D43980E00E949D1E81E06D
:1017A0000E949D1E82E00E949D1E0895A3E0B0E06D
:1017B000ECEDFBE00C943F3DA0903801B090390176
:1017C00089836A834B83CE0101966C0180E0E82E09
:1017D00081E0F82E10E0F60101916F010023A9F0DD
:1017E000812F0E94811E0E94C21EF701808191817B
:1017F0009093390180933801802F0E94D439B092A0
:101800003901A09238010E94BA1E1F5FF2E0EF0E6C
:10181000F11C133001F72396EAE00C945B3D8FEC4A
:1018200092E00E94721E88EC92E00E94CB1E809192
:10183000B7018F5F8093B7010895809113018130C4
:10184000C9F48FE692E00E94721E0E94501E8091A1
:1018500018010E94811E0E94C21E0E94BA1E609141
:10186000190170911A0180E090E026E54DEF0E9489
:101870003A1F0895823011F40E940F0C0895CF93FF
:10188000DF93C62FD42F442319F00E949D1E02C05F
:101890000E94811E81EE90E00E94721E8C2FDD233B
:1018A00019F00E949D1E02C00E94811E0E94BA1E55
:1018B000609120017091210180912201909123017A
:1018C00024E040911F010E943A1FDF91CF910895BB
:1018D000A0E0B0E0EEE6FCE00C94413D8091160102
:1018E000813039F4F0901D0100E010E0CDE1D1E04D
:1018F0005BC0833009F04CC00091200110912101A0
:1019000020912201309123016091270170912801DB
:101910008091290190912A01E0901F0140912601B8
:101920000E945412813029F424E2C22E21E0D22EEA
:1019300004C09DE1C92E91E0D92EF60103811481E6
:101940002581368160912E0170912F0180913001A7
:1019500090913101E28040912D010E94541281301A
:1019600021F48BE2C82E81E0D82EFDE1CF16F1E004
:10197000DF0619F4C4E2D1E002C0CDE1D1E08E016E
:10198000095F1F4FC016D10639F4095F1F4F04C00D
:1019900004E211E0CDE1D1E08881F801F0808F15FB
:1019A00019F0F1808F11F9808881F81201C08981C6
:1019B0000E94811E81EE90E00E94721E8F2D0E9477
:1019C000811E0115110561F081EE90E00E94721EEA
:1019D000F8018081F81202C0F80181810E94811E05
:1019E0000E94501E6B817C818D819E8124E04A8102
:1019F0000E943A1F0115110551F00E94BA1EF8010C
:101A0000638174818581968124E0428112C0CE0178
:101A10000E94EB30813079F40E94BA1E6091F2018D
:101A20007091F3018091F4019091F50128E44091C7
:101A3000F1010E943A1FCDB7DEB7E8E00C945D3D9E
:101A4000EF920F931F93CF93DF9300915C0110915E
:101A50005D0120915E0130915F0160916B01709199
:101A60006C0180916D0190916E01E0905B0140915D
:101A70006A010E945412813019F4C8E6D1E002C014
:101A8000C9E5D1E00B811C812D813E8160917A01F5
:101A900070917B0180917C0190917D01EA80409161
:101AA00079010E945412813011F4C7E7D1E0888196
:101AB0000E94811E8EEE90E00E94721E89810E941B
:101AC000811E0E94501E6B817C818D819E8126E447
:101AD0004A810E943A1FCE010E94D9238C010F3FF8
:101AE0008FEF180749F00E94BA1EB80180E090E01D
:101AF00024E04EEF0E943A1F8B859C85AD85BE8504
:101B0000892B8A2B8B2B61F089E091E00E94D61EF5
:101B10006B857C858D859E8521E448EF0E943A1F68
:101B2000DF91CF911F910F91EF900895EF920F9356
:101B30001F93CF93DF93EC016091CA017091CB01A9
:101B40008091CC019091CD0127EFE22E02E310E0CD
:101B500020E030E04091CE010E94541287FD10C079
:101B6000CE010E94D61E6091CA017091CB01809176
:101B7000CC019091CD0121E44091CE010E943A1F09
:101B8000DF91CF911F910F91EF90089540E0FC01FC
:101B9000608181810E94AB27E9E5F1E06381748176
:101BA0008581968126E442810E943A1F0895CF9351
:101BB000C62F0E949D1E81E00E94D4398C2F0E9466
:101BC0009D1ECF910895A0E0B0E0E9EEFDE00C94F9
:101BD000403D80911701813051F4E0908701E5E0AC
:101BE000CE2EF5E0FF2E85E000E010E02FC1823020
:101BF000F1F4F0908601C0908C01D0908701E090C4
:101C00008D01FC1006C0CE2C75E0E72EBB24B394EA
:101C10005AC0DE1409F417C1FE100FC1CD100DC15A
:101C2000EF2C35E0C32E45E0D42EB12C4CC08330D0
:101C300009F03FC080E066E0282F30E090E0629F2E
:101C4000F001639FF00D1124E957FE4F492F50E03A
:101C5000981769F0649FD001659FB00D1124AA57B1
:101C6000BE4FC0817C91C71302C095E085E09F5FA5
:101C7000933060F38F5F8330F8F2853048F086E070
:101C8000849F8001859F100D11240A571E4F02C0AA
:101C900000E010E086E0829FE001839FD00D1124D8
:101CA000CA57DE4FE98055E0C52E65E0F62E83E089
:101CB000CFC08AEE90E00E94C61E80911701805D21
:101CC0000E94D439DFC082E08F1590F080918701A7
:101CD0000E94811E86EE90E00E94721E8F2D0E944F
:101CE000811EC6E8D1E00CE811E0EF1018C01CC05E
:101CF0000CE811E0C6E8D1E088810E94811E8AEEDE
:101D000090E00E94721E8E2D0E94811E0115110509
:101D100009F4A3C0FE1441F0F3E0FF1528F0F80128
:101D2000E1808AEE90E004C0F801E08086EE90E069
:101D30000E94721E8E2D0E94811EF4E0FD1508F493
:101D400057C049E16C2D8D2D0E9496238130B9F446
:101D50000E94BA1E82E08F1518F082E791E002C05F
:101D600086E791E00E94721E8FE30E94D4390E94A0
:101D7000501E40E06C2D8D2D0E943F0CB12C8DE546
:101D800091E00E94D61E6A817B8180E090E026E58A
:101D90004DEF0E943A1F0E94BA1E01151105B1F5C0
:101DA0008C819D818A3F910570F488E20E94D4392C
:101DB0006C817D8180E090E020E040E00E943A1F4D
:101DC00089E20E94D43940E0688189810E94611BC8
:101DD00081E00E94852883E591E00E94960DE1E074
:101DE000BE1250C08BE591E00E94D61ECE0148C0C5
:101DF0008DE591E00E94D61E6A817B8180E090E0B3
:101E000026E54DEF0E943A1F0E94BA1EF80162813A
:101E1000738180E090E026E54DEF0E943A1FF1E0EB
:101E2000BF1230C08BE591E00E94D61ECE010E9409
:101E3000C60D0E94BA1EC80123C085E0C82E95E0D9
:101E4000F92E25E0E22E85E00CE811E0C6E8D1E0AD
:101E5000DF2CF82EBB24B3944FCF84E08D1508F00F
:101E600070CF8DE591E00E94D61E6A817B8180E073
:101E700090E026E54DEF0E943A1F0E94BA1E90CFD7
:101E80000E94C60DCDB7DEB7E9E00C945C3D8F92A1
:101E90009F92AF92BF92EF92FF920F931F93CF93B7
:101EA000DF93809113019091B901C091BB01D09152
:101EB000BA0180FF09C0192F0D2F7801DC2F96E79A
:101EC000A92E91E0B92E08C01C2FC92F7E01012F29
:101ED00082E7A82E81E0B82E86E592E00E94C61E19
:101EE000C5010E94721E8091130182FF03C08BE224
:101EF0000E94D4390E94501E0E94C00B602F8D2F6B
:101F00000E94E828892B31F00E94BA1E602F8D2F85
:101F10000E94D70D49E1612F8C2F0E9496238130BA
:101F200061F40E94501E41E06091BB018091B901B3
:101F30000E943F0C84E080933A018EE691E00E947B
:101F4000D61E6091C6017091C7018091C801909121
:101F5000C90120E040E00E943A1F0E94BA1E809111
:101F6000BF0180FF02C085E603C081FF03C083E696
:101F70000E94D4396C2F812F0E94E8288C01892B74
:101F8000A1F18AE691E00E94D61EF801C281D381B8
:101F9000248135818090C6019090C701A090C8012E
:101FA000B090C901F4E68F169104A104B10498F031
:101FB000CE01821B930B63E070E00E94BB3C8AEF72
:101FC00088169104A104B10418F4C61BD70B03C0F2
:101FD000EB01C20FD31FCE01A0E0B0E026E54DEF2C
:101FE000BC01CD010E943A1F02C0C0E0D0E080E6F3
:101FF00091E00E94960DC53FD140E0F06E2D8F2DEF
:102000000E94E828EC01892BA9F08A819B81823CFF
:10201000914080F40E94501E6E2D8F2D0E94D70D8E
:102020000E94BA1E6A817B8180E090E026E54DEF38
:102030000E943A1FDF91CF911F910F91FF90EF9077
:10204000BF90AF909F908F9008950F931F93CF9361
:10205000DF93909113018091BB01C091BA0190FF71
:1020600002C0D82F02C0DC2FC82F6C2F8D2F0E94EA
:10207000E8288C01892B31F00E94BA1E6C2F8D2F1D
:102080000E94D70D8091130183FD4BC08091C20146
:102090009091C301892B81F087E591E00E94D61EC3
:1020A0006091C2017091C301072E000C880B990B3F
:1020B00026E54DEF0E94C21F8AE791E00E94D61EDE
:1020C0006091CF017091D0018091D1019091D201A6
:1020D00026E44091D3010E943A1F8091C001909163
:1020E000C101892B71F085E091E00E94D61E6091BC
:1020F000C0017091C10180E090E024E04EEF0E94A9
:102100003A1F0115110569F08DE591E00E94D61E78
:10211000F8016281738180E090E026E54DEF0E9436
:102120003A1FDF91CF911F910F9108950E94BA1E1F
:102130008091130180FF02C08EE401C080E50E94FF
:10214000D4398DE891E00E94721E08950E94BA1E53
:102150008091130182FF03C088E891E002C083E808
:1021600091E00E94721E08958091130184FF05C0C2
:1021700085E991E00E94721E03C08AE40E94D4396E
:1021800081E991E00E94721E0E94961080911301D5
:1021900084FD0E94A6100E94501E0E94C00B8091D8
:1021A000130184FD0E9425108091130183FF1EC03E
:1021B0008DE091E00E94960D8091C4019091C5013F
:1021C000892BA1F08BEF90E00E94D61E0E94501E3A
:1021D0000E94BA1E6091C4017091C501072E000CC7
:1021E000880B990B26E54DEF0E94C21F08958EE7DC
:1021F00091E00E94721E0E9496100E94A6100E94FA
:10220000501E0E94C00B0E9425100895809112015B
:10221000823219F482E592E002C08CE492E00E94DE
:10222000721E0E94501E0E94C00B8091C0019091AE
:10223000C101892B71F085E691E00E94D61E609164
:10224000C0017091C10180E090E026E54DEF0E9451
:102250003A1F0895CF93DF9388E492E00E94721EA4
:102260000E94501E0E94C00B80E591E00E94D61E85
:10227000C6E4D1E06D817E8180E090E026E54DEFFF
:102280000E943A1F8DE591E00E94D61E6B817C81F1
:1022900080E090E026E54DEF0E943A1FDF91CF915C
:1022A00008958CEF91E00E94721E0E94501E0E94C1
:1022B000C00B82EF90E00E94D61EEDE1F1E0638159
:1022C00074818581968124E042810E943A1F08959D
:1022D000CF9388EC8093AD0184E00E94EE1AAC01AC
:1022E0008B5C9840C091AA01833F914098F4209163
:1022F000B2013091B301A3ECB9E00E94163D9A01FE
:1023000040E050E00E94CF3C3093B3012093B201F3
:10231000C46001C0CB7FC093AA018EE00E94EE1A78
:102320009093B1018093B00188EC8093AD018EE071
:102330000E94EE1A2091ED01820F911D27FD9A95C2
:102340009093B1018093B00189E18093AD01CF9169
:1023500008950E947B398FEF97E090933901809325
:10236000380183E492E00E94721EF8940FB6F8944C
:10237000A895809160008861809360001092600051
:102380000FBE5E9883B7817F846083BF83B781600F
:1023900083BF889583B78E7F83BF08958CE392E0D7
:1023A0000E94C61E8091B4019091B5016AE070E070
:1023B0000E94A73C80E090E026E54EEF0E943A1F85
:1023C0000E94BA1E8091B4019091B501811529E156
:1023D000920748F480E098EF909339018093380198
:1023E00080E392E014C0883E9C4148F480EE9FEF69
:1023F000909339018093380184E392E008C080EE25
:1024000097E0909339018093380189E392E00E942C
:10241000721E80EE97E09093390180933801089501
:1024200085E00E94EE1A9C01AEEBBFE00E94163DD3
:1024300028EE33E040E050E00E94CF3C2E5D3E4F5E
:102440003093B5012093B40184E68093B601211541
:10245000394150F40E947B390E94CE1188EB9BE0F9
:102460000E9465160E94A9110895CF92DF92EF9203
:10247000FF92CF93C1E02AE0C22ED12CE12CF12CA7
:102480006A3071058105910540F0A70196010E940F
:10249000CF3CCA01B901CF5FF3CF8C2FCF91FF9012
:1024A000EF90DF90CF900895A0E0B0E0EAE5F2E190
:1024B0000C94383D4B015C01342E280139011E2D4E
:1024C0009B01AC01D1E09AE0C92ED12CE12CF12C7A
:1024D0002A3031054105510540F0CA01B901A70173
:1024E00096010E94CF3CDF5FF3CFA3019201C1E0D0
:1024F0008AE0C82ED12CE12CF12C2A30310541057F
:10250000510540F0CA01B901A70196010E94CF3CD4
:10251000CF5FF3CF81149104A104B10459F14114A8
:1025200051046104710409F1432D4D0FE12EEC0EAD
:10253000E4164CF14E1129C0ED2FCD1754F4AAE04A
:10254000B0E0A30192010E942C3D2B013C01CF5F22
:10255000F4CFEC1754F4AAE0B0E0A50194010E9476
:102560002C3D4B015C01EF5FF4CF481459046A0421
:102570007B0448F081E084149504A604B70408F0B5
:1025800080E0819503C081E001C08FEFCDB7DEB759
:10259000E1E10C94543DCF92DF92EF92FF92CF9302
:1025A000DF93C42FD22F2AE0C22ED12CE12CF12CA4
:1025B000CD1791F0CD1744F4A70196010E94CF3CAE
:1025C000CA01B901CF5FF4CFAAE0B0E09B01AC0132
:1025D0000E942C3DC150ECCFDF91CF91FF90EF9046
:1025E000DF90CF900895CF93CAB18AB1857F8AB921
:1025F0000E94C93A99B193FF02C082E001C080E015
:1026000091FD8160CAB990914301913031F480937A
:1026100042011092430110924501909145012FEF24
:10262000290F293F18F49F5F909345019091420133
:1026300080934201891771F1282F292720FF2695C1
:10264000213029F5990F22E730E002C03595279512
:102650009A95E2F72370821711F085E001C084E0BB
:10266000909144019F5F9093440190914301891799
:1026700029F091E0909344019093450180934301A8
:1026800090914401943030F01092440104C081E0F4
:102690008093430180E0CF910895A0E0B0E0E3E5AE
:1026A000F3E10C943C3D7C01162F81E080934301C3
:1026B000109244018093400162FF08C08091AA01FA
:1026C00080FD02C01C7F02C0E12CF12C212F237061
:1026D000B22E19F081E00E94463A32E0A32ED12CAE
:1026E00042E3C42EC0E0D1E000E058E2952E812FF5
:1026F0008270882E212F2071722E1870E114F1043F
:1027000049F083E0E816F10420F022E0E21AF10833
:1027100001C0D0E04F9935C08EE190E00E9465166F
:10272000C0E0DD2311F04F9B04C0CB3108F085C021
:1027300008C0CF5FCB31C8F78AE090E00E946516F1
:10274000F0CF112309F47CC082E390E00E9465166B
:10275000C4E101E04F990CC08EE190E00E94651643
:102760004F9906C088EC90E00E946516C1E003E036
:10277000C1508AE090E00E946516C111EBCFD0E015
:1027800063C00E94F312882351F1DD2019F08017F5
:1027900011F066C0082FD394809145016D2D0E94E1
:1027A0008D3C9CE09C0DC92EC80E28E1829FC00183
:1027B000112424E0969587952A95E1F7893208F04F
:1027C00088E2869586958695833010F493E0A92E4D
:1027D000AD1005C097E0981B9093400141C0DD20EB
:1027E00021F0809145018C15D8F582E090E00E949F
:1027F0006516CF5F8C2F692D0E948D3C91110BC007
:102800008091B601823020F081508093B60103C0E0
:1028100071100E941012C83CB9F48820A1F0D13088
:1028200031F480E00E94463AC0E0D2E00DC081E081
:102830000E94463AC0E0D1E007C0D0E002E004C008
:10284000D0E001E001C0C0E08091AB0180FF06C094
:102850008091AB018E7F8093AB0102C0D1114ECF2E
:10286000BB2019F080E00E94463A00933F01802F80
:10287000CDB7DEB7EDE00C94583D65E188EB9BE009
:102880000E944D1308950F931F93CF93DF93D82F7A
:10289000882321F007E812E0C3E003C00EE812E04D
:1028A000C0E00E94081CC817F9F00E947B39C801DB
:1028B0000E94721E0E94501E88E792E00E94721EC3
:1028C0000E94081CC81305C088EC90E00E946516A1
:1028D0000BC060E184E690E00E944D13D13081F797
:1028E000882371F380E001C081E0DF91CF911F91D7
:1028F0000F910895681310C080EE9FEF90933901F7
:10290000809338018AE20E94D43980EE97E0909358
:1029100039018093380108950E94BA1E0895A0E0FD
:10292000B0E0E5E9F4E10C943A3D762E642E552EA4
:1029300059010FEF080F90903601DD24DA94D90C7D
:102940000E94C21E12E0D0E0C0E09A949A9481E006
:10295000882E8D1881E0D81202C01F5FDC2FE62C74
:10296000F52CED0EF11CED0EF11CC12CCD1498F5DB
:1029700062E06C0D81E00E94E938E1E0DE1629F0AA
:102980006C2F8D2F8C0D0E947A141130E1F0F1E044
:102990007F1206C0F701808191810E94721E0AC0D9
:1029A000C7010E94C23DBC0180E090E020E040E011
:1029B0000E943A1FA114B10419F0C5010E94721EB1
:1029C00080E00E941439F2E0EF0EF11CC3940C1564
:1029D00068F6CD2CCBCF81E0D81209C060913601CA
:1029E000809135010E94E9388CE30E94D43960E17E
:1029F00080E090E00E944D13813071F18430B1F09D
:102A0000853089F4C11106C00D1518F1D82DD00FED
:102A1000C02F07C0C150DC131DC0CD2FDD23D1F066
:102A2000D15012E097CF8230A9F416C00C1304C025
:102A30000D1558F012E00AC0CF5F892D8D0FC81315
:102A400009C0C01738F4DF5FECCF11E0D0E0C0E080
:102A500081CFC02F11E07ECF0E947B3984EF91E0BF
:102A60000E9465168C2FCDB7DEB7EFE00C94563D73
:102A7000A9E0B0E0EEE3F5E10C94453D182F85E1C7
:102A800091E09A83898381E08F8382E191E09C8346
:102A90008B8382E0888712FF03C01B7F02E006C0A1
:102AA00083E692E09E838D83198603E00E947B3942
:102AB000123019F486EA92E002C081EA92E00E94A4
:102AC000721E20E030E0AE014F5F5F4F61E0802F6B
:102AD0000E948F14FE01E80FF11D6781662319F033
:102AE000812F0E94F5162996E4E00C94613DA6E33F
:102AF000B0E0EDE7F5E10C94473D8CE292E09A837B
:102B0000898386E08DA380E292E09C838B8387E0BB
:102B10008EA38AE192E09E838D8388E08FA387EF66
:102B200090E098878F8389E088A780EF91E09A876B
:102B3000898783E189A78BEC91E09C878B8786E16D
:102B40008AA781EC91E09E878D8787E18BA787EB31
:102B500091E0988B8F878BE18CA78BEA91E09A8B21
:102B6000898B8CE18DA780EA91E09C8B8B8B8DE12A
:102B70008EA78CE092E09E8B8D8B8AE08FA780E001
:102B800092E0988F8F8B8FE188AB86EB92E09A8FE3
:102B9000898F81E089AB8BEA92E09C8F8B8F82E0FA
:102BA0008AAB86EA92E09E8F8D8F83E08BAB81EAC1
:102BB00092E098A38F8F84E08CAB85E992E09AA392
:102BC00089A385E08DAB83E692E09CA38BA31EAA2C
:102BD0000E947B398BEB92E00E94721E20E030E075
:102BE000AE014F5F5F4F61E082E10E948F14FE01F2
:102BF000E80FF11D85A1E696E2E00C94633DCF93CA
:102C00000E94771590E08032910508F04FC0FC01DA
:102C1000EC5CFF4F0C94103DC9E649C00E94D219EC
:102C200002C00E94B217C82F42C082E001C081E0FA
:102C30000E9438153BC00E943F1738C00E947B3964
:102C40008CE292E00E94721E20E432E04BE550E0FC
:102C500062E088E00E948F1490E0880F991F855AE7
:102C60009F4F0E94C23D0E942E3520C00E94EF352A
:102C70001DC00E943D321AC00E945C3217C00E94E3
:102C8000273714C00E94A13211C00E9496330EC093
:102C90000E94CC330BC00E94123408C00E944834FA
:102CA00005C00E94E33402C00E94F937C1E00E94CF
:102CB0007B39C11103C088E692E002C082EC92E049
:102CC0000E94721E8C2FCF9108952091AC01A0E03C
:102CD000B0E0F3E0880F991FAA1FBB1FFA95D1F748
:102CE0002630D1F4492F5A2F6B2F77274F5F5F4F34
:102CF0006F4F7F4FE4E0440F551F661F771FEA9523
:102D0000D1F7481759076A077B0728F4841B950BEE
:102D1000A60BB70B01C020E01092B1001092B200D8
:102D200032E03093B0003093700033B7317F232B03
:102D300023BF0FB607FC03C0789430E001C031E038
:102D400047E00097A105B105F9F0A8958F3F9105DF
:102D5000A105B10509F010F4282F01C02FEF821B47
:102D60009109A109B10921502093B3004093B1000A
:102D70002091B100222329F323B7216023BF889536
:102D800023B72E7F23BFF4CF311101C0F8940895EB
:102D90001F920F920FB60F9211241092B1000F9054
:102DA0000FBE0F901F901895E6EEF1E088EC90E0D2
:102DB000918380838CED90E09383828384E190E023
:102DC000958384838BE2868317821086118608950B
:102DD000E6EEF1E080E09191890F91E0E03FF907A4
:102DE000D1F7811101C081E00895EF92FF920F9316
:102DF0001F93CF93DF93E82E623019F0CBE0D3E03E
:102E000002C0C0E0D3E00E94E8168093F0018BE09E
:102E1000F82E06EE11E082E0E81206C0F8016081AB
:102E2000CE010E94C83D05C0CE010E94BA3DF80106
:102E300080830F5F1F4F2196FA94F110ECCFF2E0E0
:102E4000EF16C1F00E94E8169091F001992391F0DD
:102E5000891781F00E947B398AE592E00E94721EF8
:102E600088E692E00E94CB1E80ED97E00E946516F6
:102E70000E94D416CDB7DEB7E6E00C945F3D81E04A
:102E8000809332010E947B398FE391E00E94C61E3D
:102E90006091E6017091E70180E090E024E04FEF5F
:102EA0000E943A1F8BE391E00E94D61E6091E801D8
:102EB0007091E90180E090E024E04FEF0E943A1F1A
:102EC00085E291E00E94D61E6091EC0170E080E006
:102ED00090E026E444EF0E943A1F82E291E00E94D3
:102EE000D61E6091EA017091EB0180E090E024E051
:102EF0004EEF0E943A1F8BE491E00E94D61E609133
:102F0000B0017091B10180E090E026E54DEF0E94A4
:102F10003A1F8EE191E00E94D61E6091B20170913D
:102F2000B30180E090E026E54DEF0E943A1F8091CA
:102F3000AA0182FF05C00E94BA1E8AE20E94D4390B
:102F400088E191E00E94D61E6091EE01062E000CF1
:102F5000770B880B990B26E54DEF0E94C21F0E944C
:102F60003D140895A5E0B0E0E8EBF7E10C94373D9F
:102F700081E00E944314612C712C1B82A12CB12C86
:102F80001A82C12CD12C412C882309F483C1812CB5
:102F9000912C212CE12CF12C00E010E01D821C82F0
:102FA00062E0562E3324339421E029830E947B393A
:102FB00081E40E94D43980E3850D0E94D4390E94B7
:102FC000BA1E34E0531609F451C0351568F082E09A
:102FD000581699F093E0591208C180E00E944314FA
:102FE00080E094E6998302C125E0521609F467C097
:102FF00036E0531609F4A2C0F8C082E291E00E94C4
:10300000C61E88E291E00E94721E40E060E081E00E
:103010000E94611B80E00E945D209D838C83863925
:10302000910518F4C80ED91E439440E060E082E098
:103030000E94611B80E00E945D208C018639910511
:1030400018F4C80ED91E439440E061E082E00E946B
:10305000611B80E00E945D207C0186E9E816F10496
:1030600008F0C3C0CE0CDF1C4394BFC08FE391E0D7
:103070000E94721E18B837B835B834B880E00E9484
:103080004F1B9D838C8322E027B955B854B881E04B
:103090000E944F1B8C018C819D81800F911FA80E77
:1030A000B91E57B830E135B934B982E00E944F1BE0
:1030B0007C01A80EB91E8A818D5F8A8396C08BE33E
:1030C00091E00E94721E15B838B837B834B8209114
:1030D000B2013091B3013D832C8380E00E944F1BED
:1030E0002C813D81281B390B3D832C8332E038B97C
:1030F00037B984E084B90091B2011091B30181E045
:103100000E944F1B081B190B8C819D81800F911F02
:10311000680E791E94E098B997B920E124B9E0903F
:10312000B201F090B30182E00E944F1BE81AF90A45
:103130006E0C7F1C3B813D5F3B8357C085E291E075
:103140000E94C61E88E291E00E94721E40E060E08C
:1031500081E00E94AB2780915B01843F91F48091D4
:10316000600190916101A0916201B0916301853687
:103170009105A105B10528F49D838C83880E991EC5
:10318000239441E060E082E00E94AB2780916A01D5
:10319000843F89F480916F0190917001A091710139
:1031A000B091720185369105A105B10520F48C011D
:1031B000880E991E239442E061E082E00E94AB27D2
:1031C00080917901843F89F480917E0190917F0103
:1031D000A0918001B091810185369105A105B105CD
:1031E00020F47C01880E991E239481E017B818B84A
:1031F00014B815B8882319F10E94501E2C813D8106
:10320000C901A0E0B0E020E040E0BC01CD010E9497
:103210003A1F0E94BA1EC801A0E0B0E020E040E0E2
:10322000BC01CD010E943A1F0E94BA1EC701A0E056
:10323000B0E020E040E0BC01CD010E943A1F39819E
:10324000343681F060E188EE93E00E944D138823CC
:1032500049F0823029F454E6552E84E6898302C071
:1032600094E6998329812F5F2983263008F49ECE26
:10327000539436E0351508F097CE8FE028120AC037
:10328000C4016FE070E00E94A73C6093EC0191E004
:10329000998301C019822FE042120CC0C6016FE071
:1032A00070E00E94A73C7093EB016093EA013981C2
:1032B0003F5F39833A813F3009F06DC08B818F3099
:1032C00009F062C0E5E0F0E0C501BF010E94A73C43
:1032D0009B01C301BF010E94A73C8B018091B201F9
:1032E0009091B3016C01CC0CDD1CC80ED91EC21A22
:1032F000D30AC61AD70AE12CF12CD90120EA39E009
:1033000041E050E00E942C3DA70196010E94CF3C75
:10331000CA01B9016B5F7F4F8F4F9F4F2AE030E0AA
:1033200040E050E00E94CF3C2A3F31054105510565
:1033300038F43093E7012093E60199819F5F9983E8
:10334000D80120EA39E041E050E00E942C3DA7017D
:1033500096010E94CF3CCA01B9016B5F7F4F8F4F2E
:103360009F4F2AE030E040E050E00E94CF3C2831FF
:1033700081E038074105510538F43093E901209385
:10338000E80199819F5F99830E943F1781E029811D
:10339000243019F403C00E943F1780E02596E2E133
:1033A0000C94533DA0E0B0E0E8EDF9E10C94373D1A
:1033B00081E00E944314882309F40AC1C12CD12C56
:1033C000E12CF12C00E010E0C1E092E0292E28E091
:1033D000322E34EF432E36E0532E612C712CD1E087
:1033E0000E947B3984E50E94D43980E38C0F0E94CF
:1033F000D4390E94BA1EC33009F46BC0C8F5C1307D
:1034000009F451C0C23009F0A8C086E391E00E94DF
:10341000C61E88E291E00E94721E2091B201309196
:10342000B301A0E7B3E00E94163DA30192010E9400
:10343000F13C49015A0181E085B985E084B982E017
:103440000E94581B6C01C818D90881E184B981E039
:103450000E94581B7C01E818F90884E085B984E1D2
:1034600084B980E00E94581B8C010819190975C0A5
:10347000C53009F45DC008F455C0C63009F06DC010
:1034800083E491E00E94721E25B824B880E00E9477
:10349000581B8C0135B834B881E00E94581B7C0160
:1034A00080E285B955C08EE00E94EE1A8EE00E943F
:1034B000EE1A5C018BE491E00E94721E0E94501E85
:1034C000B50180E090E026E54DEF0E943A1F80E0D4
:1034D00045C081E391E00E94C61E88E291E00E940F
:1034E000721E0091B2011091B3011695079525B88F
:1034F0008AE084B982E00E94581B6C01C01AD10A8C
:1035000082E284B981E00E94581B7C01E01AF10A32
:1035100035B888E284B980E00E94581B801B910B6B
:103520008C011BC080E00E94431480E0D4E616C0EA
:1035300087E491E00E94721E15B824B880E00E94D2
:10354000581B8C0134B881E00E94581B7C0180E23A
:1035500084B982E00E94581B6C0181E014B815B850
:10356000882309F10E94501E20E040E0B801012E9E
:10357000000C880B990B0E94C21F0E94BA1E20E00B
:1035800040E0B7010F2C000C880B990B0E94C21F62
:103590000E94BA1E20E040E0B6010D2C000C880B02
:1035A000990B0E94C21FD43659F060E188EE93E077
:1035B0000E944D13882321F0823009F4C4E6D4E63A
:1035C000DF5FD63008F40CCFCF5FC73008F407CFE9
:1035D00081E0CDB7DEB7E2E10C94533DCF93DF93AA
:1035E0008F70C82FC064C0937C00DC2FD07C80918A
:1035F000AF01D81721F00E94CD3AD093AF0180914E
:103600007A00806480937A0080917A0086FDFCCFF6
:1036100020E030E0A90180E0E091AD018E1708F5CF
:1036200090917A00906490937A0090917A0096FD40
:10363000FCCF6091780070917900260F371F411DF3
:10364000511D843061F4211594E0390740F4D03CD9
:1036500031F09091AE01913011F4C06CC4CF8F5F06
:10366000DBCFD03C29F4A091B001B091B10104C0EE
:10367000A091B201B091B3010E942C3D2AE0969531
:103680008795779567952A95D1F72E2F30E040E002
:1036900050E00E94CF3CC901DF91CF910895CF93B4
:1036A000C82F0E94C43A8C2F0E94EE1ACF91089521
:1036B000CF93C82F0E94C23A8C2F0E94EE1ACF914E
:1036C0000895A0E0B0E0E7E6FBE10C94413DE62E72
:1036D000042FC4EDD1E0888369834A83C82ED12C9E
:1036E000C601875F9F4F0E94BA3D8E83F12CC701B0
:1036F000875F9F4F0E94BA3D8F8310E0C801875FAC
:103700009F4F0E94BA3D8887C6018A5F9F4F0E94E3
:10371000BA3D8987C7018A5F9F4F0E94BA3D8A8759
:10372000C8018A5F9F4F0E94BA3D8B87C6018D5F9B
:103730009F4F0E94BA3D8C87C7018D5F9F4F0E94AB
:10374000BA3D8D87C8018D5F9F4F0E94BA3D8E871D
:10375000C601805090400E94BA3D8F87C7018050BB
:1037600090400E94BA3D888BC801805090400E94D2
:10377000BA3D898BCDB7DEB7E8E00C945D3DE4ED52
:10378000F1E04581648183810E94611B0895E4ED2D
:10379000F1E08081838381818483828185830895A0
:1037A00093E0981B892F861B0895CF93DF9340E009
:1037B0000E94611B17B89091DA0195B98091DB01E5
:1037C000892B84B98091E3010E944F1BEC01809109
:1037D000E4010E94EE1AAC012091B2013091B301D4
:1037E00036952795C9014E978C179D0760F4225E88
:1037F0003F4FC217D30738F48417950720F481E0B0
:103800004217530708F080E014B8DF91CF91089574
:10381000CF9361E080E00E94D51BC82F62E080E07A
:103820000E94D51BC80F62E081E00E94D51B8C0F5F
:10383000CF9108950F931F93CF93DF93D82FC62F67
:1038400017B818B814B815B840E00E94611B8091F1
:10385000E00187B98091E4010E94EE1A8C01809109
:10386000E10187B98091E3010E94EE1A0817190758
:1038700028F440E06D2F8C2F0E94611B8091E001A5
:1038800087B98091DB0184B9C2E38091E4010E9491
:10389000EE1A9C01203981E0380738F0C15069F0F8
:1038A00084E690E00E946516F0CF87B19091E10127
:1038B000982B97B92832310588F717B814B8DF91DB
:1038C000CF911F910F910895A6E0B0E0EAE6FCE1E8
:1038D0000C943E3D17B818B815B88FE384B980E052
:1038E0000E94EE1A9A83898381E00E94EE1A9C83DB
:1038F0008B8382E00E94EE1A9E838D83E12C12E07E
:1039000008E2FF24F394AA24A394B12C1F5F133080
:1039100009F410E0C12ED12C8E2D90E0012E02C0B2
:10392000959587950A94E2F780FDF0CF812F0E944C
:10393000EE1AF601EE0FFF1F21E030E02C0F3D1FC5
:10394000E20FF31F208131818217930768F491837E
:103950008083202F30E02F1931092431310564F4A0
:103960000B3E50F40C5E08C08A30910518F4083202
:1039700009F400E5F39402C0FF24F3948330910529
:1039800040F4C5010C2C01C0880F0A94EAF7E82A1C
:103990000BC08032934040F497B0C6018D5F9F4FBB
:1039A0000E94BA3D892987B987E0E81681F10F1591
:1039B00040F581E080931201809313011093180168
:1039C000C6018D5F9F4F0E94BA3D97B180959823A5
:1039D00097B9C6018A5F9F4F0E94BA3D082FC60162
:1039E000875F9F4F0E94BA3D94B1802B80958923B9
:1039F00084B9812F0E94EE1A90931A0180931901C5
:103A000006C0A89582E390E00E9465167FCF14B8A7
:103A100017B82696EBE00C945A3DCF93C82FC0956B
:103A200095B160FF02C0982B01C09C2395B994B159
:103A3000892B84B963FF03C00E94C83A02C00E9468
:103A4000C33A84B18C2384B985B1C823C5B9CF9159
:103A50000895A0E0B0E0EFE2FDE10C94423D61305A
:103A600039F0623071F06330A9F080E090E04DC031
:103A7000CBE6D0E0E7E0F0E002E310E028EE33E050
:103A800011C0CDE7D0E0ECE2F0E009E110E02CE27B
:103A900031E008C0CBE1D0E0EEE1F0E009E110E078
:103AA00028EC30E08217930768F1821B930BB80172
:103AB0000E94A73CD02ED81ACB019927E817F90706
:103AC00008F46E2FC60FD11DC60FD11DCE010E9466
:103AD000C23D7C01CE0102960E94C23DFC01E81A63
:103AE000F90ADE9C9001DF9C300D1124C8019695E7
:103AF0008795820F931FB8010E94A73CCF01860FC4
:103B0000971F03C0D02E60E0DDCFCDB7DEB7E7E072
:103B10000C945E3D0F931F93CF93DF93909112010E
:103B2000913009F497C0062F182FA8950E94611BA9
:103B300015B88091DB0184B98091E00187B988B91B
:103B400060E18091DC010E940D1D8091E4010E94E2
:103B50004F1BEC01813D934050F061E18091DC010D
:103B60000E940D1D8091E4010E944F1BEC01C031A9
:103B7000D10528F480911401811128C00DC08091D5
:103B80001401811103C0CE010E94EF2CC13D83E0DE
:103B9000D80708F043C0EECF8091DB0184B915B897
:103BA0008091E00187B988B90E94C43A9091DB0105
:103BB0008091DC01892B84B9802F0E944F1B8F35A7
:103BC0009D4020F0BE0182E00E94382B80911401BC
:103BD00081112CC08091E10187B918B89091DA0168
:103BE0008091DC01892B84B985B9812F0E944F1BFC
:103BF0008034964060F40E94942E811108C0809118
:103C00001201813221F0BE0181E00E94382B8091A7
:103C1000140181110BC00E94862F08C080911401ED
:103C2000811102C00E94352F0E94FB288091120151
:103C3000882311F08A3019F40E94292107C08F319E
:103C400029F48091130184FD0E94FA2917B818B84D
:103C500014B815B8DF91CF911F910F9108958091FD
:103C600015018823E1F09091140190FD18C091FD99
:103C700004C0909112019E3190F4809312018091C2
:103C800046018093B901809147018093BA018091E8
:103C900048018093BB0180911C0180931B01089512
:103CA000CF936091340180913601681315C0C091A3
:103CB0003201C0FD0E943D14C1FF0BC0C09136010E
:103CC000C23028F08C2F0E941439C150F9CF62E025
:103CD00004C00E947B3904C06F5F81E00E94E93814
:103CE000CF910895CF93DF93EC01CE010E94BA3DAE
:103CF000882321F00E94D4392196F7CFDF91CF910C
:103D000008950F931F93CF93DF93C2E3D1E00E8109
:103D10001F81E82FF0E0EE0FFF1FE050FF4F2081E2
:103D200031813F832E83885F0E94D4391F830E83A5
:103D3000DF91CF911F910F9108950F931F93CF9310
:103D4000DF93C2E3D1E00E811F81E82FF0E0EE0F98
:103D5000FF1FE050FF4F208131813F832E830E945F
:103D6000AF0B0E94D4391F830E83DF91CF911F9137
:103D70000F91089580E20E94D43908958DE20E9447
:103D8000D43908958AE30E94D43908950E94721E9E
:103D90000E94BA1E0895CF93DF93EC010E94501E3B
:103DA000CE010E94721EDF91CF910895CF93DF93D1
:103DB000EC010E94501ECE010E94721E0E94BA1E8B
:103DC000DF91CF91089582E00E94143962E081E092
:103DD0000E94E9380895CF92DF92FF920F931F93CC
:103DE000CF93DF93D42F022F2AE04DE451E00E94BD
:103DF0006E3DEDE4F1E001900020E9F73197CF014D
:103E00008D549140F82EDD2369F08D1728F0C82FCE
:103E1000CD1BD0E041F401C0D81B80E30E94D4390F
:103E2000C0E001C0C4E68DE4C82E81E0D82E10E0C9
:103E30001F1598F41C130AC08EE20E94D439DD23AA
:103E400029F080E30E94D439D150F9CFF601819155
:103E50006F010E94D4391F5FEBCF002319F0802F30
:103E60000E94D439DF91CF911F910F91FF90DF9085
:103E7000CF900895A0E0B0E0E0E4FFE10C943D3D78
:103E80006B017C01C42F122F9AE0892E912CA12C5A
:103E9000B12C80E1C81687E2D806E104F10470F085
:103EA000C701B6016B5F7F4F8F4F9F4FA5019401F4
:103EB0000E94CF3C69017A01CF5FEBCFC13FACF0EC
:103EC0008FE08C0F23E0622F0E94993CD92F992319
:103ED00019F08F5F291BD22F883040F490E0875271
:103EE0009F4F0E94BA3D082F02C0D0E000E04AE098
:103EF0006DE471E0C6010E94903DEDE4F1E00190B7
:103F00000020E9F73197ED54F140BE2ECE2FCD1BA6
:103F10001C165CF080E30E94D4398EE20E94D439F2
:103F2000CC2319F080E30E94D439D11101C0CFEF26
:103F3000C1508DE4C82E81E0D82EE12CF12C0C2E3E
:103F4000000CDD0BEB1478F4F60181916F010E94F7
:103F5000D439CE15DF0519F48EE20E94D439FFEF73
:103F6000EF1AFF0AEFCF002319F0802F0E94D439F7
:103F7000112319F0812F0E94D439CDB7DEB7ECE0C0
:103F80000C94593DCF92DF92EF92FF92CF93DF9343
:103F90006B017C01C42FD22F97FF0AC00E94BE1E66
:103FA000F094E094D094C094C11CD11CE11CF11C8D
:103FB0002D2F4C2FC701B6010E943A1FDF91CF91E0
:103FC000FF90EF90DF90CF900895CF93C82F80910E
:103FD0001B01982F990F890FE62FF0E0E80FF11DD4
:103FE000EA54FF4FE491EE23F9F080913D018150B6
:103FF00060913E01E1FF04C090913B019F5F890FFA
:10400000E2FF04C090913C01690F61500E94E938C1
:104010008C2F0E94AF0B883721F48C2F0E949D1E9D
:1040200003C08C2F0E94811ECF910895CF93DF9300
:1040300020913C01309136012317E0F59091350134
:10404000903118F0280F231738F0309334010E9474
:10405000501E93E082E003C020913B01921B90939D
:104060003D0180933E0160E08091B9010E94E51F0F
:1040700061E08091BA010E94E51F62E08091BB017E
:104080000E94E51FC0913801D091390180EE9FEF69
:10409000909339018093380160913E0180913D01F8
:1040A0000E94E93880911B010E94553AD093390152
:1040B000C0933801DF91CF9108954F925F926F9234
:1040C0007F928F929F92AF92BF92CF92DF92EF92A8
:1040D000FF921F93CF93DF93C82F0E94641C80919F
:1040E0001201813009F456C018B88091E10187B9F6
:1040F0008091DA0185B984B90E94C33AC12CD12CD0
:10410000760181E0182F117080FF03C08091E301D8
:1041100002C08091E401A895806C80937C000E948D
:10412000CD3A80917A00806480937A0080917A0001
:1041300086FDFCCFD4E6812C912C540180917A002D
:10414000806480937A0080917A0086FDFCCF809114
:10415000780090917900880E991EA11CB11C0E94D4
:10416000CA3AD15059F7A091B001B091B101A5015F
:1041700094010E942C3D4B015C018AE0B694A79407
:10418000979487948A95D1F782E0112331F07501D5
:104190006401B8CF80E090E04CC015B89091E10187
:1041A0008091E001892B87B98C149D04AE04BF0473
:1041B000D8F52091B2013091B301A4E6B0E00E949D
:1041C000163D9B01AC012C193D094E095F090E9467
:1041D0002C3D2B013C01A7019601281939094A09F8
:1041E0005B09A8EEB3E00E942C3D6B017C0120919D
:1041F000E8013091E9012057354E40E050E0C3011D
:10420000B2010E94CF3CC701B6010E94CF3CC90158
:10421000C13061F46091EA017091EB01621773079C
:1042200018F4861B970B02C080E090E020EC2093EE
:10423000AF01DF91CF911F91FF90EF90DF90CF9072
:10424000BF90AF909F908F907F906F905F904F90B6
:104250000895A0E0B0E0EFE2F1E20C94373DA895BC
:1042600018B88091E10187B98091DA0184B985B9E4
:104270008091E4010E944F1B4C018091E3010E9458
:10428000EE1AEC0115B88091DD0184B98091E3014B
:104290000E944F1B459708F044C28091DD0185B90B
:1042A0008091E3010E944F1B6C018091E00187B96E
:1042B00088B915B88091DB0184B98091E3010E942F
:1042C0004F1B2C018091E4010E94EE1A3C01809169
:1042D000DE0184B98091E4010E944F1B5C01C03370
:1042E00021E1D20728F432E6C316D10438F019C20E
:1042F0004CE6C41643E1D40608F013C259EA651629
:10430000710408F070C086E2A816B10408F409C26E
:10431000D60120EF3BE247E050E00E942C3DC091E7
:10432000B201D091B3019E012C193D0940E050E04B
:104330000E94CF3C29013A01DE01AA19BB0920EFF6
:104340003BE247E050E00E942C3D850120E030E058
:10435000A90198010E94CF3CEEEDCE16E3E0DE0607
:1043600080F4D301C201D2E0880F991FAA1FBB1F9E
:10437000DA95D1F7BC01CD01620F731F841F951F21
:1043800014C0FEEDAF16F3E0BF06B0F4DA01C901C8
:10439000C2E0880F991FAA1FBB1FCA95D1F7BC01A5
:1043A000CD01640D751D861D971D25E030E040E0B0
:1043B00050E00E94CF3C0CC0D301C201820F931F7A
:1043C000A41FB51F9C01AD015695479537952795BC
:1043D000225A3E4F4F4F5F4FAAE0B0E00E942C3D63
:1043E0004B015C01B3C0C815D90508F483C046145D
:1043F000570408F47FC04091B2015091B301C41733
:10440000D50709F421972091E8013091E90120575F
:10441000354EDE01A819B9090E94163D9A012C1BE0
:104420003D0B40E050E00E94CF3C49015A012091F1
:10443000E6013091E7012057354ED201A619B709A0
:104440000E94163D830120E030E0A90198010E94FE
:10445000CF3CCE3DD34080F4D501C401F2E0880FBB
:10446000991FAA1FBB1FFA95D1F7BC01CD01620F9E
:10447000731F841F951F1BC0EEED6E16E3E07E06D2
:1044800060F5283FF4E23F07F1E04F075105A0F443
:10449000DA01C901E2E0880F991FAA1FBB1FEA9544
:1044A000D1F7BC01CD01680D791D8A1D9B1D25E04A
:1044B00030E040E050E00CC0A9E0B0E00E942C3DAC
:1044C000680D791D8A1D9B1D2AE030E040E050E018
:1044D0000E94CF3C49015A0139C0D501C401820F65
:1044E000931FA41FB51F4C015D01B694A794979428
:1044F00087942CC02FE8621622E1720608F001C1F1
:1045000081E00E945D202C01612C712C812C912C6A
:10451000540120E030E0A901280D391D4A1D5B1D22
:10452000AAE0B0E00E942C3D61157105810591055E
:1045300021F464E670E080E090E0461657066806D5
:10454000790658F453014201CEEF08C034E68316D1
:104550009104A104B10408F4C0C0CFEF80E0D7E01B
:104560002AE0F22E90911601891708F09DC0682E5E
:10457000712CD69D9001D79D300D1124F901E35E79
:10458000FE4F6F0120819091D401291389C02181B0
:104590009091D501291384C0E12C02E010E020E0C5
:1045A00030E04C2FC501B4010E9454128F3F09F036
:1045B0003FC0F601638174818581968102E010E03D
:1045C00020E030E042810E9454128F3F51F5F60105
:1045D0004281C41719F055245A9402C055245394AB
:1045E000D69DC001D79D900D11249C01235E3E4FA6
:1045F0006901F9016381748185819681EC2E9501B1
:1046000084010E945412F601581206C083809480DF
:10461000A580B680C28105C083829482A582B682BD
:10462000C2831401250156944794379427940AC0F5
:10463000C501B40124E130E040E050E00E94CF3CED
:1046400019012A01D69DC001D79D900D11249C010E
:10465000235E3E4F6901F9016381748185819681F2
:10466000EC2E9501840102191309240935094281B0
:104670000E94541287FD16C095018401020D131D7E
:10468000241D351DF60163817481858196814281E7
:104690000E945412181634F0F092120184E662CF90
:1046A0008F5F60CF88EC5ECF8436D9F19330C8F548
:1046B00027E0929FF0011124E35EFE4F8091D50127
:1046C00080838091D401818383829482A582B68283
:1046D000C2839F5F9093160124C081E00E945D20F9
:1046E0002C01612C712CA5019401220F331F441F52
:1046F000551F85E088169104A104B10408F40CCF7D
:104700000FCF81E00E945D202C01612C712C8AE08A
:10471000882E912CA12CB12C24E130E040E050E017
:10472000FFCECDB7DEB7E2E10C94533DEF920F938D
:104730001F93CF93C42F1092160140E00E94611B7B
:104740000E942921809116018130B1F4CC23B1F06F
:10475000009120011091210120912201309123012B
:104760006C2F70E080E090E0E0901F0143E00E9439
:10477000541291E0813019F090E001C091E0892F4E
:10478000CF911F910F91EF900895813138F08151B1
:1047900015BC92E094BD87BD81E0089580E0089546
:1047A00016BC81E085BDA99BFECF15BC82E085BB10
:1047B0000895A4E0B0E0EFEDF3E20C94373D0097EC
:1047C00029F46FEF7FEF7C836B8339C19C838B83EC
:1047D000FC016381748185819681A7EFEA2E0AE04E
:1047E00010E020E030E042810E94541287FDE9CFC2
:1047F0000E94641C80911201813019F3EB81FC81CD
:10480000618180810E941A1C40E0EB81FC81618102
:1048100080810E94611B0091E3018091E401006CA2
:10482000806C8A8315BC82E084BD81E287BD18B8A4
:1048300000937C000E94C33AFFEFF983812C912CF6
:1048400054018394412C512C3201439480E090E038
:1048500052E3C52ED12C16EDA895C29758F480913D
:10486000E10187B98091DA0185B984B90E94D63A0D
:1048700014B815B822E3C216D10458F48091E001AF
:1048800087B98091DB0185B984B90E94D63A14B802
:1048900015B88091E00187B98091DA0185B984B9B2
:1048A00000937C0010937A0080917A0086FDFCCF03
:1048B00010937A0080917A0086FDFCCF20907800DA
:1048C000309079006A8160937C0010937A00809127
:1048D0007A0086FDFCCF10937A000E94D23A0E94A3
:1048E000D0238091DB0185B984B90E94D63A14B8EF
:1048F00080917A0086FDFCCFC0907800D09079003E
:104900008091E10187B98091DB0185B984B97A8111
:1049100070937C0010937A0080917A0086FDFCCF22
:1049200010937A0080917A0086FDFCCFE0907800A9
:10493000F090790000937C0010937A0080917A00C7
:1049400086FDFCCF10937A000E94D23A0E94D023B9
:104950008091DA0185B984B90E94D63A14B8809161
:104960007A0086FDFCCF8091780090917900A701B4
:1049700060E070E0420D531D611D711D440E551E17
:10498000661E771EAC0160E070E04C0D5D1D611D80
:10499000711D840E951EA61EB71EE981E150E983A4
:1049A000E1115ACF17B815B8481459046A047B04AA
:1049B000E8F58091E6019091E7012AE0289FD00177
:1049C000299FB00D1124A501940124193509460928
:1049D00057090E942C3DA30192010E94CF3C809177
:1049E000EA019091EB018217930720F4B901681B4B
:1049F000790B19C0EB81FC8163817481858196817B
:104A00002AEFE22E08EE13E020E030E042810E941F
:104A1000541221E030E0181614F420E030E066274C
:104A20007727621B730B7C836B8304C08FEF9FEF30
:104A30009C838B8380EC8093AF010E94641C8B81EC
:104A40009C812496E2E10C94533DA0E0B0E0EBE2BF
:104A5000F5E20C94383D6C0101E113E00E94641C06
:104A600080911201813009F413C118B88091E101DD
:104A700087B915B814B88091E3010E94EE1A5C0161
:104A8000E12CF12C8FEFE81AF80A602F8091DA01FF
:104A90000E940D1D8091E3010E94EE1AA816B9062E
:104AA00090F4EC01CA19DB099EE7E916F10429F438
:104AB000CB34D10508F0F0C00CC0CC32E1E0DE0709
:104AC00040F481E007C0C0E0D0E0FEE7EF16F1045B
:104AD000C1F780E0F4EFEF16F1E0FF0609F480E0A3
:104AE000A8958111CFCFCC3281E0D80708F411E02E
:104AF00091E0E916F10459F4C531E5E0DE0738F03C
:104B0000802F807109E009F0A9CF12E0C3C01330F3
:104B100009F0C0C0470180E090E08114910459F091
:104B2000F1E08F1A91088091E3010E94EE1A8A1930
:104B30009B09A895F2CF8C179D0748F44E01881A5F
:104B4000990A85E68816910420F010E002C0812CB5
:104B5000912C8091E3010E94EE1A5C01902F9071DC
:104B6000392E19F00E94B83A02C00E94BD3A8091D5
:104B7000E3010E94EE1A8A159B0518F4A81AB90AD7
:104B800002C0A12CB12C133009F084C062E0CE0128
:104B9000880D991D0E94291D9C01D7010E94163D78
:104BA0002B013C01332031F1AAE0B0E09B01AC01C4
:104BB0000E942C3D2B013C016833E9E87E07E1E4CB
:104BC0008E07910508F46FC0C301B20128EE33E0EF
:104BD00040E050E00E94CF3C29013A01A8EEB3E04A
:104BE0000E942C3DCAEF332089F022E434E040E0FB
:104BF00050E010C0683379488144910528F7A8EE49
:104C0000B3E0A30192010E942C3DC7EF20E134E004
:104C100040E050E00E94CF3C8091D501F6018083B6
:104C20008091D4018183C2834782508661867286D7
:104C300023833483458356838AE0482E512C612C8C
:104C4000712C2130F5E33F07FCE04F07510540F0A0
:104C5000CA01B901A30192010E94CF3CCF5FF1CFFD
:104C6000D5010E942C3D28EE33E040E050E00E9448
:104C7000CF3CCA01B90103FDCF5F28EF4C2F0E9442
:104C8000CB12F601638774878587968783E013C00C
:104C900080E011C0812F0FC081E0CC3291E0D907B4
:104CA00008F41ECF1CCFA8EEB3E09B01AC010E941C
:104CB0002C3DC7EF9ACFCDB7DEB7E1E10C94543D60
:104CC000A0E0B0E0E6E6F6E20C943F3DEC010E9485
:104CD000641C80911201813009F472C015B887E01C
:104CE00087B918B88091DD0184B980E480937B0096
:104CF00084E480BF8091E301806480937C0086E03F
:104D000080937A000E94CC3A109280001092810029
:104D1000109285001092840087E286BB8091DD01AD
:104D200085B9809112018F3129F48091E00180953D
:104D3000877002C08091E10191E09093810087B972
:104D4000E12CF12C86B385FD0CC080FFFBCF96BB18
:104D5000A8952FEFE21AF20A20E4E21626E0F20606
:104D600089F71092810090E296BBC0908600D090A7
:104D7000870014B82091840030918500C216D306B4
:104D800038F480FF05C081E086BB8FEFE81AF80A8F
:104D900086E980937A0080917B008F7B80937B00F3
:104DA0008091E3010E94EE1A5C0115B88091DD014B
:104DB00084B920E4E21626E0F20620F081E0C6C0C5
:104DC00080E0C4C0C601A0E0B0E06701E12CF12C96
:104DD0007601DD24CC24C82AD92AEA2AFB2A83E0DA
:104DE000C816D104E104F104C8F082E0C81AD10861
:104DF000E108F10828E3C21629E8D20621E4E20618
:104E0000F10460F0C701B60128EE33E040E050E065
:104E10000E94CF3C69017A0117EF01C014EF209185
:104E2000EE018091B0019091B10161E0820F911D7E
:104E300027FD9A950E94291DDC01A70196010E9479
:104E40002C3D20E233E040E050E00E94CF3C143F94
:104E500089F48091EC0190E0A0E0B0E028173907D8
:104E60004A075B0750F069017A01C81AD90AEA0AB1
:104E7000FB0A06C069017A0103C0C12CD12C76015E
:104E80008091D50188838091D40189831A832F83EF
:104E9000388749875A87CB82DC82ED82FE82143FB5
:104EA00049F480EAC81686E8D80681E0E806F104ED
:104EB00060F44BC0173F09F048C021E2C2162EE44F
:104EC000D206E104F10408F040C08091E3010E94A1
:104ED000EE1A853D9340C8F714B81092AE01809148
:104EE000E3010E94EE1AEC0181E08093AE01809113
:104EF000E3010E94EE1AAC018091DD0184B9DE016C
:104F0000A41BB50BC091B001D091B101CD010496A5
:104F1000099788F09E010E94253D9A0140E050E0EB
:104F20000E94F13C8091ED01280F2093ED01CC0D02
:104F3000D11DC7FCDA9585010C1B1D0BC801C1965C
:104F40008336910510F40093EE0183E0CDB7DEB710
:104F5000EAE00C945B3DA0E0B0E0E1EBF7E20C94FA
:104F60003F3DC42ED12C2FE0429FF0011124E75A7F
:104F7000FE4F1082118294EF928317821086118661
:104F80001286138214821582168213861486158661
:104F9000168690911201913009F47FC0B62EF82E3A
:104FA0009A3091F4CDE1D1E0A12C07C088818F1512
:104FB00091F08B15A1F0A394279680911601A81665
:104FC000A8F384E6A81269C06B2D8F2D0E94E828F3
:104FD0000097C9F41FC099819B11EBCF03C0898151
:104FE000F812E9CF6B817C818D819E81E12C0AE0F2
:104FF00010E020E030E04A810E9454128F3FD9F641
:1050000083E6A82ED8CFFC01828193818C3D954008
:1050100008F443C08FE08C9DE0018D9DD00D1124DC
:10502000C75ADE4F40E06B2D8F2D0E94611BCE01D1
:105030000E942525823019F4CE010E9460268091BD
:105040001201843120F58A3079F48FE08C9DF001D3
:105050008D9DF00D1124E75AFE4F82818A3FBCF0EE
:105060008BE08093120113C08FE08C9DF0018D9D29
:10507000F00D1124E75AFE4F8281853F8CF7838122
:105080009481A581B6810597A105B10548F70E94D5
:10509000641C17B818B814B815B8CDB7DEB7EAE075
:1050A0000C945B3DE09112018E2F90E0FC017E9705
:1050B000E730F105E0F4EC5AFF4F0C94103D85E425
:1050C00093E422E41BC08091130186FD14C083E5A4
:1050D00094E413C085E493E410C083E491E40DC02C
:1050E00081E392E30AC081E392E325E407C080E014
:1050F00090E020E003C088E798E727E42093BC0114
:105100009093BD018093BE010895CF92DF92EF92FC
:10511000FF92CF93C82F15B88091DB0184B980919D
:10512000E00187B988B98091E4010E944F1B843067
:10513000910500F1C090E601D090E701E12CF12C3F
:10514000893725E0920770F0C13061F414B890916E
:10515000E0018091E101892B87B98091E4010E94EF
:10516000EE1A06C020E9C20E2AE1D21EE11CF11C93
:10517000C9EF0FC08091DE0184B98091E4010E94E3
:105180004F1B20EFC22E2BE2D22E27E0E22EF12C75
:10519000C8EF17B818B814B815B8DC0120EA36E81B
:1051A00041E050E00E942C3DA70196010E94CF3CB7
:1051B0002093CA013093CB014093CC015093CD0191
:1051C000C093CE01CF91FF90EF90DF90CF900895E4
:1051D00090911701E6E8F1E0992349F02081281326
:1051E00003C02181261729F091503696F5CFE0E0D3
:1051F000F0E0CF010895A0E0B0E0E1E0F9E20C9426
:105200003D3DA8950E94641C80911201813009F4F3
:10521000ECC018B88091E10187B98091E3010E9448
:10522000EE1A982EA92E8091DD0184B985B961E12D
:105230008091DC010E940D1D8091E3010E944F1BB3
:10524000B82E892E8091DA0184B985B961E1809107
:10525000DC010E940D1D8091E3010E944F1B6C0137
:105260008091E4010E94EE1A8C010E94641C8091DE
:105270001201813009F4B9C018B88091E10187B9F1
:105280008091E3010E94EE1A7C0117B88091E00141
:1052900088B987B915B88091DE0184B960E1809141
:1052A000DC010E940D1D8091E3010E944F1BEC0167
:1052B0008091E4010E94EE1AC817D90718F0C81BA4
:1052C000D90B02C0C0E0D0E0C01AD10A8091DB0146
:1052D00084B960E18091DC010E940D1D8091E301A1
:1052E0000E944F1B8C018091E4010E94EE1A081B62
:1052F000190B17B80C151D0548F4C601801B910B3E
:10530000E92CFA2CCB2DD82D860103C0C8018C19AD
:105310009D09893E934008F068C0C630D10508F465
:1053200064C0EC16FD0620F4CE018E199F0903C05F
:10533000C7018C1B9D0B23E0E216F10420F084369C
:10534000910508F452C0C832D10538F0C801875918
:1053500091098938914158F148C015B88091DB0115
:1053600084B98091E00188B987B98091E4010E94F5
:105370004F1B7C018091DA0184B98091E10188B9E9
:1053800087B98091E3010E944F1B9C01C70164E132
:1053900070E00E94A73CC701861B970B82179307FA
:1053A000A8F66E0D7F1D2617370780F61EC0809168
:1053B0001201882311F08A3019F484E180931201DC
:1053C0008091170196E0899FF0011124EA57FE4F62
:1053D0009091D40190839091D5019183138302839E
:1053E000D583C4838F5F80931701CDB7DEB7ECE020
:1053F0000C94593D209113018091BB019091BA0109
:1054000020FF03C0682F892F01C0692F0E94E82860
:10541000892B49F01092120110921301809114010E
:105420008E7F809314010895A0E0B0E0EAE1FAE2F3
:105430000C943E3D282F2170922E80FF06C01091C3
:10544000DA01C091E00100E105C01091DB01C091DB
:10545000E10101E1C7708091E501806480937C00E7
:105460000E94CD3ADAE0C12CD12C7601AA24AA946C
:1054700083E0B82EA895602F8091DC010E940D1D5D
:105480008091DF01812B84B9992021F086B18C2392
:10549000E9F703C086B18C23E9F314B980917A004F
:1054A000806480937A0080917A0086FDFCCF8091A1
:1054B000780090917900992029F0C80ED91EE11C3E
:1054C000F11C07C09501281B390BC21AD30AE10849
:1054D000F108D15079F6C701B6012AE030E040E08A
:1054E00050E00E94F13CA091B201B091B3010E9442
:1054F0002C3D20E034E040E050E00E94F13C30934D
:10550000C3012093C20180E48093AF01CDB7DEB721
:10551000EBE00C945A3DA0E0B0E0E1E9FAE20C9433
:10552000413D182F8091DC011130D1F49091E001C0
:1055300097B998B99091DB01982B94B985B980916E
:10554000E4010E944F1B7C01C091B201D091B301D4
:105550008091E5010E94EE1A9E01281B390B18C0AC
:1055600018B89091E10197B99091DA0195B9892B1A
:1055700084B9E090B201F090B3018091E3010E9400
:105580004F1BE81AF90A8091E5010E94EE1A9C016E
:105590002115310511F421E030E0C701821B930B86
:1055A000B9010E94A73C6B01E12CF12C203131059F
:1055B00008F057C08091DF011130D1F49091DB01E8
:1055C000982B94B985B98091E4010E944F1B8C01FE
:1055D000C091B201D091B3018091E5010E94EE1A11
:1055E000FE01E81BF90BC091E601D091E70117C05D
:1055F0009091DA01892B84B90091B2011091B30125
:105600008091E3010E944F1B081B190B8091E5015B
:105610000E94EE1AFC01C091E801D091E901309797
:1056200011F4E1E0F0E0D80120EF3BE247E050E088
:105630000E942C3D9F0140E050E00E94CF3CAAE038
:10564000B0E00E942C3D9E012057354E40E050E0D6
:105650000E94CF3CC216D306E406F50610F4690199
:105660007A01C701B601CDB7DEB7E8E00C945D3D25
:10567000A0E0B0E0EEE3FBE20C94393DF82E6B01C4
:105680000E94C71B8091DF0121E0F21226C0909199
:10569000DA01892B84B985B90E94BF3AC091B20161
:1056A000D091B3018091E3010E94EE1AC81BD90B7F
:1056B0000091B2011091B3018091E5010E94EE1AB0
:1056C000F801E81BF90BA090E801B090E90188E42B
:1056D0009DE02DEF39E011E017C09091DB01892B9F
:1056E00084B98091E4010E944F1BEC018091E50197
:1056F0000E94EE1AFC01A090E601B090E70180ED57
:1057000097E021ED33E012E02E173F0708F0CDC0FF
:10571000809112018E31D9F4809113019F2D98232D
:1057200011F484600CC031E0F3120BC09091BA0107
:105730008091D401981305C0F092120182E0809309
:1057400013018091140181608093140105C08EE1E2
:1057500080931201F0921301CC16DD0610F4CC19DF
:10576000DD09DE0120EF3BE247E050E00E942C3DE6
:105770009F0140E050E00E94CF3CAAE0B0E00E94D0
:105780002C3D95012057354E40E050E00E94CF3C23
:1057900029013A018F2D0E948B2A4B015C0146168C
:1057A00057066806790620F053014201C1E001C0A6
:1057B000C2E04090C6015090C7016090C80170904F
:1057C000C90181E040E0F81205C06091D6018091E6
:1057D000D50104C06091D4018091D6010E94AB270D
:1057E0000E94BF1B8091130182FF1EC000915C01CB
:1057F00010915D0120915E0130915F016091CF01B8
:105800007091D0018091D1019091D201E0905B0123
:105810004091D3010E945412813009F4DBC08F2DD6
:1058200084608093130106C0481459046A047B0401
:1058300008F0D0C080E00E9485288092C601909236
:10584000C701A092C801B092C901C093BF01809165
:105850005C0190915D01A0915E01B0915F01809328
:10586000CF019093D001A093D101B093D201809148
:105870005B018093D3018091D6018093B90180911F
:10588000D4019091D50121E0F21207C08093BA01B2
:105890009093BB0110921B019DC09093BA0180931D
:1058A000BB0181E080931B0195C031E6C316D10492
:1058B00008F090C08C179D0708F08CC08091E30120
:1058C0000E94EE1A6C018091E4010E94EE1A96018A
:1058D000281B390BC9012A3F3105C0F52FE1209360
:1058E0001201212F246120931301113041F4A09162
:1058F000E801B091E901A057B54E22E007C0A091A0
:10590000E601B091E701A057B54E23E020931B01BB
:105910004AE0489F9001499F300D11240E94163D96
:105920009E0140E050E00E94CF3C8091EA019091BE
:10593000EB018217930718F4281B390B02C020E0F3
:1059400030E03093C1012093C0010EC080E280930B
:105950001201812F846080931301113011F488E0CB
:1059600001C089E080931B01812F0E94142A80913D
:1059700014018160809314018091D6018093B90154
:105980009091D4012091D501113029F49093BA015E
:105990002093BB0104C02093BA019093BB0140E067
:1059A0006091BB010E94AB2780915C0190915D01E9
:1059B000A0915E01B0915F018093CF019093D001DF
:1059C000A093D101B093D20180915B018093D30168
:1059D0000E94BF1BCDB7DEB7E0E10C94553DA0E0BF
:1059E000B0E0E5EFFCE20C94403D8B3E914028F0A6
:1059F00098EEE92EFF24F39403C088E2E82EF12C00
:105A00009091DB018091DF01892B84B98091E401C1
:105A10000E94581B6C018091DF0185B98091E401DF
:105A20000E94581BEC01C7018C0D9D1D8C179D0712
:105A300008F066C08091DC0184B985B918B88091FE
:105A4000E10187B98091E5010E94581B17B8BB247A
:105A5000B3948C3B924008F0B12C8091E00187B95F
:105A60008091E5010E94581B8C018091E3010E9406
:105A7000EE1A17B88017910738F4081B190B023C6F
:105A8000114010F4BB24B3948091E10188B987B927
:105A90009091DA018091DF01892B84B915B880914A
:105AA000E3010E94581B8C018091DF0185B9809130
:105AB000E3010E94581B801B910B8C0118B8809148
:105AC000E10187B99091DA018091DF01892B84B9D6
:105AD00085B98091E5010E94581B88349F4028F0C9
