:10000000CCC50000DCC50000DAC50000D8C5000082
:10001000D6C500000C94B034D2C500000C94021078
:10002000CEC50000CCC500000C94B0270C949434CD
:100030000C94A2340C948A27C2C50000C0C50000ED
:100040000C946E34BCC50000BAC50000B8C50000F1
:10005000B6C500000C940310B2C50000B0C5000086
:10006000AEC50000ACC50000E62FF72F903009F4B4
:100070009395E5B8C4B8B6EFB0937A00A5E0A09325
:100080007B00A8E0A093810010928000AFEFA093C6
:100090008500A0938400A6E0A093360010928B0008
:1000A00010928A00B3E0AFE3A91B51E0392F33303F
:1000B0002AF0A05CBC4F53953350F9CFB093890020
:1000C000A0938800A0917A00A4FFFCCFB6EBB09378
:1000D0007A00A2E0A0936F00A9E0A093810062E003
:1000E000A0E0A0937B00A1E0A09353008895E5B821
:1000F000C4B884FF1AC0A8E10000AA95F1F7EF93F5
:10010000FF93E7B1F8B1A4E0C2FCA2E0C0FCA1E01B
:10011000BF2FBA2BAE2BB8B904B9A7B9E7B9F8B954
:10012000FF91EF910BC00C947300ACE10000000054
:10013000AA95F1F725B9E5B8000004B9A0918400AB
:10014000A0918500B0918900A395AB1760F7A091AD
:100150007A00A4FFF3CFB6EBB0937A006A9571F7FB
:100160006091780070917900308186FD630F619312
:10017000308186FD731F80FF7193652F4A9579F753
:1001800010926F0010928100B6E0B0937A0008954B
:10019000C801C101BA0118000820060606FEFE00CB
:1001A00000002060E0FFFFE06020060606FFFF067B
:1001B00006066060607F7F00000005084281898933
:1001C000760508C2A19189860508000402FF000E89
:1001D000100610FCF878F8D888959484000103097B
:1001E00008031080C0E0070F1F0E080610FFFF86EF
:1001F000F6E6C6FFFF616F67630E080210FFFFFFA0
:10020000FF11080310F6E6C66F67630C000A204171
:1002100022000010B0F0F0F0F8FEFE8C06030100A2
:100220000001037F7F3163C6CCD8C0C040949400E6
:10023000000F0703070C180C000220A192FFFFFF1C
:10024000FF85010F0007200010B0F0F0F0F8060362
:10025000010000010363C6CCD8C0C040000F0703F3
:10026000070C180104100102044E6F742063616CC6
:10027000696272617465642100B903870358032EB3
:10028000030703E402C302A4028802000014002949
:10029000003E005300690080009700AE00C600DFFA
:1002A00000F80012012D01490165018201A001BE83
:1002B00001DE01FF012102440268028E02B502DE66
:1002C000020903350364039403C803FE0337047370
:1002D00004B404F90443059305EA054906B3062965
:1002E00007AE074808FF08DE09FD0A930C480F997E
:1002F0001B0000000000000000000000001E212183
:10030000211200000080C0FF7F007E4A4A4A34006C
:10031000000000FCFC80C0E070381C0E07030100E8
:1003200000000303030303030303037F7F070F1C82
:10033000B8F0E0F0F800000000000000000000004D
:100340000000000000FC94959585010103070EFC58
:10035000F80000000000000000003E414141220082
:10036000E0C080C0E070180F07003C4252523400D9
:100370000000F8F800DEDE8C07070707060400001F
:1003800000000C0C0C0C0C0C0C0C0F0F007B7B31C8
:1003900063C68C98C0E00000000000000000000070
:1003A0000000FC949494940004060707070F18F0CB
:1003B000E00000000000000000000000003F21A15C
:1003C000920C0000000000FFFF003C42525234003B
:1003D00000000000F8F800EFEF86C6E6F686868794
:1003E00007000C0C0C0C0C0C0C0C0C0C0F0F00F779
:1003F000F76163676F617FFFE000000000000000AD
:10040000000000000048949595640000000000FF83
:10041000FF0000000000000000000000003F21215C
:10042000120C0000000000FFFF003C42525234005A
:100430000000E0C0800000FFFF0C0C0C0C0C0C0F47
:100440000F0003030303030303031F0F070303FF4B
:10045000FF606060606060E0E0000000000000009D
:10046000000000000048949595640000000000FF23
:10047000FF000000000000000000000000FFFF007F
:100480007824227E006452524C003C425252340086
:1004900086C6E6F6FEF7EFDEBEFEBE9E8E86000046
:1004A00000000C0C0C0C0C0C0D0D0D0703FFFF01D4
:1004B0000101010101010000000000000000000036
:1004C0000000000000FFFF00F04844FC0088FC80B2
:1004D00000000000000000000000000000FFFF001E
:1004E00000007C1211127C0000003C425252340089
:1004F00002868E9EBEFFFFBE9E8E8682000000009A
:1005000000000C0C0C0C0C0C0C0D0D0703FFFF0174
:1005100001010101000000000000000000000000D7
:100520000000000000FFFF00000078848484480081
:100530000000F0F8FC1E4E27171717171717170F94
:100540001EFEFCF8F000E000000001070F0F2F2650
:10055000100C00000080C0E0F0FF7F3F8F601F00A4
:1005600000000000000000000038BCBEBF8FE71391
:10057000090402010000000000000000000000006B
:10058000001E3E5E5E447800000000000000000097
:100590000000F804022254880403000202010078DB
:1005A0008402020284780604070007040600FC00A7
:1005B000000080FC0007010101000100000C121284
:1005C0000C0000000000000000000000000000001F
:1005D00000000000000000003CFE3C0000000000A5
:1005E000060000000000160E00160E0000000000BD
:1005F0000000000010FC1010FC10000107010107B2
:1006000001001824FE4488000003040F0403000CBA
:1006100012924C2010080201000609090688542293
:10062000548800800102040402010200160E00003A
:100630000000000000000000000000F008040200BC
:10064000000001020408000000020408F00000009D
:1006500008040201004850E0FCE050480201000795
:10066000000102404040F84040000000000300004C
:100670000000000000000000000B0500000000402A
:1006800040404040404000000000000000000000EA
:100690000000000000060600000000000000C0305E
:1006A0000C03000C0300000000F8844222120CF836
:1006B0000102040404020100080402FE000000001C
:1006C0000000070000188442424224180704040472
:1006D0000404040C020222225488030404040402C9
:1006E000016050484442FE40000000000007003E08
:1006F0002212121222C201020404040201F824127E
:10070000121222C4010204040402010202824222E3
:10071000120E000700000000008854222222548894
:1007200001020404040201384482828244F8020473
:10073000040404020100181800000000000606006E
:1007400000000000181800000000000B0700000067
:10075000000040A01008040200000001020408008C
:1007600020202020202000010101010101000204BD
:100770000810A04000080402010000180402824290
:1007800024180000000D000000FC0262929292FC0E
:1007900003040404040400F08884828488F00700C1
:1007A0000000000007FE2222222222DC07040404AB
:1007B000040403FC02020202020C03040404040405
:1007C00003FE0202020202FC07040404040403FE06
:1007D00022222222220207040404040404FE22220C
:1007E0002222020207000000000000FC0202024276
:1007F00042CC03040404040207FE2020202020FE33
:1008000007000000000007000002FE0200000000D8
:1008100004070400000000000000FE0000020404C1
:10082000040300FE205088040200070000000102BB
:1008300004FE00000000000007040404040404FE99
:100840000408100804FE07000000000007FE061858
:10085000608000FE07000000010607FC02020202A1
:1008600002FC03040404040403FE42424242423CEC
:1008700007000000000000FC0202020202FC030468
:100880000404050205FE4242C242423C0700000049
:100890000102040C12222222428C030404040404E8
:1008A00003020202FE02020200000007000000FE36
:1008B0000000000000FE030404040404030E708022
:1008C0000080700E000003040300007E8000E00042
:1008D000807E00000700070000020C9060900C0270
:1008E000040300000003041E20408040201E00007E
:1008F000000700000002824222120A0607040404D4
:1009000004040400FE0202000000000704040000CA
:1009100000081020408000000000000000010200DC
:1009200000000202FE00000000040407001008049A
:100930000204081000000000000000000000000099
:100940000000040404040404040000000E16000067
:1009500000000000000000804848484848F00304B8
:100960000404040207FE2010101010E00704040421
:10097000040403F00808080808100304040404042D
:1009800002E01010101020FE03040404040407F019
:10099000888888888870030404040404040020FC08
:1009A0002222020400000700000000708888888866
:1009B00088F000040404040403FE4020101010E03A
:1009C00007000000000007000008FA000000000017
:1009D000000700000000000000FA00000204040408
:1009E000030000FE4040A0100800070000000102C4
:1009F00004000002FE00000000000003040000F8F4
:100A00001008F00808F007000007000007F82010A1
:100A1000080808F007000000000007F008080808B0
:100A200008F003040404040403F89008080808F01C
:100A300007000101010100F00808080890F8000112
:100A40000101010007F82010080808300700000025
:100A50000000003048488888881002040404040418
:100A6000030010FE1010000000000304040402F84C
:100A70000000000000F8030404040402071860806A
:100A80000080601800000106010000F80000C000AE
:100A900000F801020403040201081020C02010081D
:100AA00004020100010204788080808040F8020482
:100AB00004040404030808884828180802050404EC
:100AC00004040440A01C0202000000000708080003
:100AD00000000000FF0000000000000F0000000008
:100AE0000002021CA04000000808070000040201E8
:100AF0000204080400000000000000E010080404E4
:100B000008100101010101010140F010101010F066
:100B100040000101010101010040FCF8F0E040FC4F
:100B200040000703010000070040FC40E0F0F8FC33
:100B300040000700000103070040FCFC0000FCFC33
:100B4000400007070000070700F808080808080821
:100B50000803020202020202020808080808080844
:100B6000F8020202020202020340404040404040BC
:100B700040000000000000000040C000C020C00095
:100B8000C0000102020102020220C000C020C00019
:100B9000C001020202010202010011241FBECFEFB8
:100BA000D8E0DEBFCDBF21E0A0E0B1E001C01D92E2
:100BB000AC3CB207E1F70E94A9140C94A63D20CAF0
:100BC0005D98559A80FD599A80FF5998519A539A89
:100BD0005A9867FD5B9A67FF5B985A9A5A9866FD28
:100BE0005B9A66FF5B985A9A5A9865FD5B9A65FF17
:100BF0005B985A9A5A9864FD5B9A64FF5B985A9A7C
:100C00005A9863FD5B9A63FF5B985A9A5A9862FD03
:100C10005B9A62FF5B985A9A5A9861FD5B9A61FFF2
:100C20005B985A9A5A9860FD5B9A60FF5B985A9A53
:100C30005D9A5A985B98089597FF09C08F939F9388
:100C40008DE22BD69F918F91909581959F4F64E275
:100C500071E04AE050E00E94453D76C60895ECDF21
:100C600001C0EADF80E219C68DE217C68DE315C622
:100C7000EF92FF920F931F93182F062FF42E8DE7FC
:100C800091E07AD6EE24E0913F01F0914001868513
:100C9000E81611F4812F09C08485E81611F4802F1D
:100CA00004C08585E81611F48F2DF7D5E3948E2DB9
:100CB000833049F71F910F91FF90EF900895EF92C5
:100CC000FF920F931F93182F062FF42E80E0D8D495
:100CD00083E891E051D6EE248E2D33D6C7DFE09124
:100CE0003F01F09140018685E81611F4812F09C07B
:100CF0008485E81611F4802F04C08585E81611F468
:100D00008F2DCBD5AFDFE3948E2D833029F71F9144
:100D10000F91FF90EF900895682F80E092E0662396
:100D200009F491E0623009F481E008950F93082FEF
:100D3000E4EBF1E0880F880FE80FF11D608171810D
:100D400082819381643671058105910568F4209153
:100D5000220127FD09C0802FDFDF692FF3D16EEF5D
:100D600023E04DE137D704C04FEF04E02DE149D631
:100D700079DF0F910895863058F4E3EAF1E0E80F47
:100D8000F11DE80FF11D8081918163E02ED76ACFBC
:100D900008951F93182F80917A01882319F062DF3C
:100DA00080E07BD590D384E791E0E6D5812F8295D2
:100DB0008F70E1DF812F8F70DEDF1F9108958091AA
:100DC000060182958F7019D08091060183701CD026
:100DD00080910601DECF0895E7E9F1E0E80FF11D0B
:100DE0000895CF93F9DF9081C681C91710F405D01B
:100DF00001C013D037DFCF910895EEDF8F9380814C
:100E0000A0D58F9101C008958F938CE391E0B4D564
:100E10008F91E2DF868195C50895DEDF8F9386810D
:100E200090D58F9101C008958F9388E391E0A4D568
:100E30008F91D2DF808185C5089503D002D001D083
:100E400000D000D003D002D001D000D000D003D019
:100E500002D001D000D000D0A89503D002D001D09C
:100E600000D000D003D002D001D000D000D003D0F9
:100E700002D001D000D000D003D002D001D000D0E9
:100E80000000089582E090E0893C28F0885C48ECFE
:100E9000849FC0011124009709F4089540918100B6
:100EA000477019F0D9DF0197F6CF8130910519F01D
:100EB00002975EE303C057E180E090E04091B2000A
:100EC000450F4093B30042E04093700047E043BFBA
:100ED000889546E043BF10927000A895DCCF8F93B1
:100EE00084E0D1DF06C08F93CDDF03C08F9381E014
:100EF000CADF8F911F93182F106410937C00E12F8D
:100F0000E07880912F01E81759F0E0932F01AEDFD0
:100F10008EE980937A0083E083BF889582E083BF67
:100F200020E030E0A901E0E01FC08EE980937A0064
:100F300083E083BF889582E083BF609178007091E1
:100F40007900260F371F411D511DE43061F4809157
:100F50003101803041F084E02030380720F417FD63
:100F600002C01068CACFEF5F80912E01E817E8F247
:100F7000609132017091330117FF04C0609130011C
:100F80007091310180E090E00E94BB3B2FEF33E095
:100F900040E050E00E94FD3BB901CA0120912E01C2
:100FA00030E040E050E00E94FD3BC9011F910895F0
:100FB0009B01281B390B50F0C9010895BC01809199
:100FC0003201909133016817790718F4861B970B4B
:100FD000089580E090E0089588E593E00E94803DC8
:100FE0002091360130913701280F391F20931601C7
:100FF0003093170183E0283E380720F0C901885E4E
:10100000934002C080E090E062E370E00E94D63B33
:10101000683008F067E0E9E7F2E0E60FF11DE60F5F
:10102000F11D459155912591359162E3681B421B55
:10103000530B649FC001659F900D1124499662E394
:1010400070E00E94D63B620F731F70937E01609325
:101050007D018AE593E00E94783D992787FD909570
:101060006091360170913701860F971F909331017F
:1010700080933001909379018093780108950F92C5
:1010800021E08C32920710F48CE291E08C52914076
:1010900069E170E00E94D63B99E16B3210F0982F25
:1010A0006BE2981BE2EDF2E0E60FF11DE60FF11D99
:1010B0009F93CF010E94783D482F3196CF010E9427
:1010C000783D582F3196CF010E94783D282F3196D8
:1010D000CF010E94783D382F6F91421B530B649FC4
:1010E000C001659F900D11240C9669E170E00E948B
:1010F000D63B620F731FCB010F900895CF93DF9300
:1011000024E130E0B9010E94D63BDC01EBE8F2E0DB
:10111000E60FF71FE60FF71FC591D5914591559141
:101120004C1B5D0B4A9FC0014B9F900D5A9F900D29
:101130001124B9010E94D63B6C0F7D1FCB01DF91BA
:10114000CF910895AEE1B0E0E8EAF8E00C94E53C18
:10115000662EB82E860F898320911A01283059F502
:101160002091830130918401409185015091860145
:1011700057FD15C01091920109C0CA01B9012AE0BA
:10118000312D412D512D0E94FD3B1F5F173FACF3C8
:1011900091F4243160E036074105510518F48FEFD2
:1011A0009FEF42C1173F39F480E028178DE73807D9
:1011B0004105410510F020E03DE72C8B3D8B26EDED
:1011C000A22EE6E6F2E0E60DF11D859180608E87A5
:1011D000E6E6F2E0EB0DF11D859180608F87E3E696
:1011E000F2E0E60DF11D7590E3E6F2E0EB0DF11D86
:1011F000C59090EC692AB92A81E0E82EF12C012DE6
:10120000112D8E831F82188619861A861B861C86CE
:101210001D86188E198E1B8E1A8E0E94E42380E084
:1012200088B960927C0022DE3F8537B975B874B802
:1012300052E05A95F1F70000000014B815B8DD240B
:101240003E8537B975B874B860927C00A895A092B5
:101250007A0080917A0086FDFCCF20907800309053
:101260007900B0927C004C2DE3D020917800309131
:101270007900288B398B3F8537B9C5B8C4B8A89594
:10128000B0927C00A0927A0080917A0086FDFCCF1B
:10129000609178007091790060927C00472DC8D0F1
:1012A000409178005091790014B8CB01820D931DC4
:1012B000E80EF91E011D111DEA82FB820C831D83BD
:1012C00088899989840F951F2E813F81688579854A
:1012D000280F391F611D711D2E833F836887798711
:1012E00022E32417150648F075B874B8C9DD14B8A0
:1012F00015B8888D8395888F07C0483E73E05707DF
:1013000018F08A8D83958A8F8889998928171906FC
:1013100058F03E8537B9C5B8C4B8B2DD14B815B8B1
:10132000898D8395898F07C0883E73E0970718F0F1
:101330008B8D83958B8FD3945D2D5F3F49F05F3705
:1013400031F45C2D550FC50E572D550F750E78CF06
:1013500040903B0150903C01440C551C9201E4E04C
:10136000240D351DEA95E1F72901570168016E80CA
:101370007F808884998420911A012830C1F46C8977
:101380007D89812D912D65507040804090409B015A
:10139000AC010E94BB3B9B01AC0160E779E786E1B1
:1013A00090E00E94FD3B621A730A840A950AA61413
:1013B000B704C804D90428F46A187B088C089D086F
:1013C00003C0662477244301B20180E090E09301DA
:1013D000A4010E94BB3B9501A6010E94FD3B80E356
:1013E00093E07981870F911D0E94783D682EC90195
:1013F00060E170E00E94D63B260F371FC9016816D6
:10140000190618F4861991090FC08C5E9F4F861536
:10141000910540F48C899D89843981E1980710F009
:101420000E945014812D912D6E96E2E10C94013DA5
:10143000109281001092800010926F0010928B0029
:1014400010928A0057E056BB5FEF5093850050938F
:10145000840055E050937B0056EB50937A0051E0A6
:101460005093810058E25A95F1F7000045B944B90C
:1014700055E05A95F1F7000014B815B810928100A4
:1014800080917A0084FFFCCF80937A000895CF93F7
:10149000C82F1C161CF4E6DBC150FBCFCF9108957A
:1014A00060933E018093030186958093B301660F9C
:1014B000660F660F6093040108951092B30160E017
:1014C00080E0EECF089581E08093B30160E082E098
:1014D000E7CF089582E08093B30160E084E0E0CF3D
:1014E000089583E08093B30160E086E0D9CF08954A
:1014F00080913E01809301018091B30180930201AC
:1015000008958091020160910101880FC9CF08956B
:10151000CF93C82F692F81E053DB6C2F81E050DB24
:10152000CF910895682F80E04BCB0895CF93DF9340
:101530008AE2F8DF80E090E0EBDF80EA90E0E8DF2D
:101540008BE2F0DF80E090E0E3DF80E890E0E0DF36
:101550008CE2E8DFC0E0A895D0EA80911B01909171
:101560001C01D6DFD150C9F7CF5FC038A1F7A5DF86
:10157000DF91CF910895CF93DF9358985A985B9855
:101580005D98509A529A539A559A75DC5D9A559A7D
:101590005998519A84E177DC589A84E174DC8AE0A6
:1015A00072DC81E1BFDF84E06EDC86E2BBDF64E0F9
:1015B00081E006DB81EBB6DF6EE081E001DB64E118
:1015C00081E0FEDA80ECAEDF80E09EE0A1DF81EC1E
:1015D000A9DF65E081E0F4DA85ECA4DF80E498E33C
:1015E00097DF8AE39FDF65E081E0EADA86E39ADF4E
:1015F0008FE293E00E94783DCBE1D1E088838EE2D8
:1016000093E00E94783D89838DE293E00E94783DCB
:10161000C5E9D1E088838CE293E00E94783D89831C
:101620006CE381E0CDDA84EB7DDF60E081E0C8DA55
:101630007DDF89E277DF8AE026DCDF91CF910895B4
:1016400090913E0184E1891B22CF0895CF93C82F4A
:10165000F7DF8091B3018F5F8093B301883038F05A
:1016600087E08093B30181E08093410102C0109232
:1016700041018091B3016C2F880F12DFCF91089543
:10168000E5DF97C4089519DFDBDF17CF08951BDF6F
:10169000D7DF19CF0895582F28E030E090E841E0D7
:1016A00080E0652F642309F0892B440F9695215023
:1016B0003109B9F70895A4E0B0E0E1E6FBE00C944D
:1016C000E53C9C838B83F42E10E0A62EB12CC50143
:1016D000800F911F813A91050CF090C08E2D90E003
:1016E000AC014F0D511D413851050CF087C0EA94F3
:1016F000EF0CE7FE02C06FE7E62E322F327039831F
:1017000021FF13C0019753E0959587955A95E1F70E
:10171000809FA001819F500D909F500D11248B81BF
:101720009C81840F951F9C838B8321702A833801B1
:1017300091E0691A7108EF1408F460C0C12CD12C33
:101740008F2D90E027E7222E312C281A390A3EE708
:10175000432E512C481A590AC016D10609F43DC02F
:101760008BE2E0DEC101D4DEC201D2DE8AE2DADE43
:1017700045018C0C9D1CC401CBDEC401C9DE8CE28A
:10178000D1DE3A81332341F0F301EC19FD098B815D
:101790009C81E80FF91F04C0EB81FC81EC0DFD1D5D
:1017A00094909981992319F0892D75DF982E48E03E
:1017B000842E97FE05C080915C0190915D0104C06C
:1017C00080911B0190911C01A3DE990C8A948110D9
:1017D000F0CF3FEFC31AD30ABFCF8981882329F006
:1017E0008B819C81801B910B04C08B819C81800F1D
:1017F000911F9C838B8398E0F90E9DCF2496E2E1A4
:101800000C94013DEF920F93482F80EE97E0909358
:101810005D0180935C01242F2F7380E6289F900147
:101820001124C9018F509D4F46FF02C028E001C01E
:1018300028E52093050147FF03C01092000108C06E
:1018400020E220930001209105012D5D20930501E8
:1018500020E2E22E08E120E04091000160910501C4
:101860002ADF0F91EF900895EF920F93262FFC013E
:10187000649131964491319604913196E49030917F
:101880000001430F30910501630F049614DF0F919F
:10189000EF90089560E0E8CF0895EF920F932091C4
:1018A00095013091960130935D0120935C019091F8
:1018B0003E019F5F90933E0140910301282F30E04D
:1018C000440F440F440F8C3098F4C90134E0880F62
:1018D000991F3A95E1F750E1E52E08E020E060918C
:1018E0000401875F944FE7DE80910401885F23C085
:1018F0002C5131095EE0529FC001539F900D11247D
:1019000020E1E22E07E020E0609104018F569A4F1B
:10191000D2DE60910401695F60930401409103018C
:10192000440F440F440F01E020E089EC95E0C3DE52
:10193000809104018F5F80930401A8950F91EF902F
:1019400008958F5CAACF0895CF93DF93EC0189911E
:10195000882311F0A2DFFBCFDF91CF910895CF93C1
:10196000DF93EC01FE018491882319F096DF219624
:10197000F9CFDF91CF910895CF93DF93EC01CE01A2
:101980000E94783D882319F088DF2196F8CFDF91F7
:10199000CF910895EF920F93FC0104913196E4905A
:1019A000029689DE0F91EF9008950F938BE991E0F5
:1019B000E3DF409191014D3F64F460917F017091AC
:1019C0008001809181019091820103E026E419D089
:1019D00002C08FE362DF0F910895909119019F700B
:1019E000923071F44DDE84E690E0C6DFE0913F0175
:1019F000F091400122E04DE16FEF84819581EAC0D2
:101A00000895AEE0B0E0E7E0FDE00C94E53C142F73
:101A1000622E702E6B017C010F7080E389838A83B4
:101A20008B838C838D838E83F7FE0AC01DD9F0943F
:101A3000E094D094C094C11CD11CE11CF11C04C0E2
:101A400075FE02C08BE229DF033071F0043099F09B
:101A50000530C1F00630F1F0073021F174E6872E31
:101A6000912CA12CB12C25C068EE862E63E0962E19
:101A7000A12CB12C1EC050E1852E57E2952EA12C31
:101A8000B12C17C040EA842E46E8942EAA24A394D1
:101A9000B12C0FC030E4832E32E4932E3FE0A32E0E
:101AA000B12C07C020E8822E26E9922E28E9A22E2A
:101AB000B12C9AE0292E312C412C512CC814D90478
:101AC000EA04FB0470F0C701B6016B5F7F4F8F4FD4
:101AD0009F4FA20191010E94FD3B69017A011F5FA6
:101AE000EDCF81E1810F9BEA899F812D1124A82EE2
:101AF000A69486E0811B899F112D11241695912FA4
:101B0000990F190F811B182F4E0187E0880E911C29
:101B10002AE0A401C701B6010E94243DF40101900E
:101B20000020E9F731977F01E818F9089E2C67013A
:101B3000DD24812F90E004968C159D0514F4A39468
:101B40001D5F8A2D90E0845D9F4F0E94783DA82EF6
:101B500074FE04C0901610F40E1901C000E08E2C23
:101B6000811A800E181424F08EE297DE012F0E19D0
:101B7000111102C088EF882E912C10E0C00ED11EEA
:101B8000E82C082C000CFF08892D90E08C159D0591
:101B9000ACF4FC013696E01BF10B81E090E08C0F79
:101BA0009D1FE80FF91F808178DE9394892D90E0C6
:101BB0008E159F0549F78EE270DEE6CFAA2011F060
:101BC0008A2D6BDE662011F0862D67DE2E96E2E10F
:101BD0000C94013D0F93362FBC0180E090E0022F62
:101BE000242F432F0EDF0F9108950F93062FBC0172
:101BF00080E090E026E54DEF04DF0F9108950F930C
:101C0000042F28E440E0FDDE8AE747DE2BD80F9161
:101C10000895E82FF0E0EE0FFF1FE057FE4FA5916B
:101C2000B49190910001490F90910501690F20E056
:101C3000CD01B0CE0895CF93DF93C82FD62FE0917A
:101C40003F01F091400148E16EE18685E2DFE091DD
:101C50003F01F09140014D2F6C2F8485DADFE09138
:101C60003F01F091400140E06EE18585D2DFDF91D8
:101C7000CF9108951F93CF93DF9358DC80ECC2DDA2
:101C800062E086E991E0F0DD80E8BCDD8FEC91E078
:101C900001DE60E085E004DC80E991E06DDE6AE071
:101CA00085E0FEDB88E891E067DE88E99AE318D1F9
:101CB0003DDC83E4A7DD83E0A5DD8FED91E0EADD87
:101CC00061E082E0EDDB8EE4E8DD0E9434068AEA22
:101CD00091E052DE6BE082E0E3DB80E5DEDD0E9436
:101CE00034068AEA91E048DE88E99AE3F9D01EDCFE
:101CF00081EC88DD81E886DD83E492E0CBDD60E085
:101D000085E0CEDB8EE4C9DD0E94340685E4C5DDC6
:101D100084EA91E031DE6AE086E0C2DB80E5BDDD89
:101D20000E94340685E4B9DD84EA91E025DE88E985
:101D30009AE3D6D0FBDB81E465DD87E392E0AADDA0
:101D400081E060DD8BE092E0A5DD60E081E0A8DB72
:101D50008EE4A3DD0E94340684E49FDD84EA91E0F2
:101D60000BDE6AE082E09CDB80E597DD0E943406B2
:101D700084E493DD84EA91E0FFDD88E99AE3B0D062
:101D8000D5DB82EC3FDD82E83DDD81E092E082DD63
:101D900060E085E085DB8EE480DD0E94340685E42A
:101DA0007CDD8FEA91E0E8DD6AE086E079DB80E5C2
:101DB00074DD0E94340685E470DD8FEA91E0DCDD9D
:101DC00088E99AE38DD0B2DB82E41CDD89EF91E0F3
:101DD00061DD82E017DD89EE91E05CDD61E081E0AC
:101DE0005FDB8EE45ADD0E94340684E456DD8FEA20
:101DF00091E0C2DD6BE082E053DB80E54EDD0E94C6
:101E0000340684E44ADD8FEA91E0B6DDC0E014E1F7
:101E10008C2F612F0E94CA3BD82F91110AC08111CB
:101E200004C088E99AE35CD081DB60E08D2F880FE5
:101E300037DB8CE18C0F31DDCF5FC43649F788E9A1
:101E40009AE34ED073DBDF91CF911F91089599B142
:101E500093FB992790F94999926080911101843000
:101E600050F08EE080930D0190930E0110921201BC
:101E700081E08093110180911101E82FF0E0E35F90
:101E8000FE4F3081931729F191111AC0E3E0E80F5A
:101E9000E37020911201323041F4F0E0E35FFE4F35
:101EA0003081333069F42F5F09C0313049F4F0E0FC
:101EB000E35FFE4F3081333019F42150209312013B
:101EC000E1E0E80FE370E0931101F0E0E35FFE4F23
:101ED00090838091120187FD81958093130108956D
:101EE000A0E0B0E0E6E7FFE00C94EE3CE82ED92E4F
:101EF000539851980E94310710921201E0911101FC
:101F0000F0E03196E370FF27E35FFE4F80EF8083C0
:101F1000C5E6D9E19CDF4F9906C00E943507D15034
:101F2000C9F7C150B1F7CE2DDD2DF12C15E500E03C
:101F3000BB24B394D7FD37C082E3C82E88DF0E944C
:101F40003507CA94C110FACF110F4F9B1F5F1F7343
:101F50001F3349F4011103C0CE2DDD2D04E00F5FC6
:101F6000083C28F020C0111102C001111CC0A89526
:101F70001C161D0624F42A9711F4CFEFDFEF809191
:101F80001301882339F0F39480917B01811102C001
:101F9000B0927B0184E18F1568F680911201811166
:101FA00002C0F12CC7CF802FCDB7DEB7E9E00C948B
:101FB0000A3DCF939DDAC82F80914101882301F11A
:101FC000813051F4C73041F463E18EE069DA8BE28D
:101FD00064DC63E18EE064DA80E49FE181DF8111FB
:101FE00004C0809113018111F7CFC73041F4809173
:101FF0004101813021F460E08EE052DA21DB81DAA8
:10200000CF9108951895189530911801A0913F012E
:10201000B0914001E7E9F1E080E090E08317B0F48F
:1020200041911C962C911C97421719F0458124135D
:1020300002C00196F3CFFC01EE0FFF1FED55FE4FDE
:1020400020813181293E334008F4089584E10895C8
:1020500010921A01109218011092730110925101FE
:102060001092190110923D0110927A01EEE5F1E013
:10207000108211821282EFE7F1E0108A82E0818BF8
:1020800010922201178616861482158216821782F4
:1020900081EF838B08955E980E94200780E090E096
:1020A0001FCF08951F93CF93DF93162F17B818B83B
:1020B000E82FF0E0ED59FD4F949195B9262F281B9C
:1020C000E20FF11D27FDFA95E491E92BE4B90E9496
:1020D0007A07EC01812F0E947A07AC01209132012E
:1020E0003091330136952795C9010397BE01625E91
:1020F0007F4F8617970778F4255E3F4FC217D307A7
:1021000050F4BA01625E7F4F8617970720F481E092
:102110004217530708F080E014B8DF91CF911F9168
:102120000895CF9361E080E0BDDFC82F62E080E0DA
:10213000B9DFC80F62E081E0B5DF8C0FCF91089561
:10214000AFE0B0E0E6EAF0E10C94E53CB82E109286
:102150001A01807FA9F4E5DF833009F09DC3E6D939
:1021600084E692E009DCAFD98FE397DB80ED97E05E
:10217000B7DE8B30C8F4DAD98AE091E0FDDB8CC39E
:1021800006E910E0D3D983ED91E0F6DBCADF8330B6
:1021900021F41F5F143010F007C010E088E20E94A5
:1021A0004307015079F763C08ED90E94D22781EB93
:1021B00090E0E2DB60E082E393E00E94853D60E036
:1021C00083E393E00E94853D60E081E393E00E9419
:1021D000853D60E082E00E94A2086C019A838983B9
:1021E00061E082E00E94A2087C019C838B8360E016
:1021F00081E00E94A2088C019E838D8323E040E24F
:102200006EEFC601E7DC23E040E26EEFC701E2DCDF
:1022100023E04DE16EEFC801DDDC2AE5C216D104F2
:1022200024F084E190E09A838983698182E393E0DA
:102230000E94853D8AE5E816F10424F084E190E0EF
:102240009C838B836B8183E393E00E94853D0A35F9
:10225000110524F084E190E09E838D836D8181E3FC
:1022600093E00E94853D82E080934101A2DEEB2D48
:10227000EF70EF87E13011F018E749C1EE24E394E5
:10228000F12C78EB872E72ED972E77E4A72EB12CE8
:1022900002E0E8E0DE2EF0E23F2EC12C1E2D52E2DD
:1022A000252EF5D9F0D984E5F8DAC7010E94270672
:1022B0000E9432061130B9F484EE90E05DDB64E0F8
:1022C000809136019091370190DCFDD88FED90E040
:1022D00053DB80917D0190917E010E9427068EEB59
:1022E00080932E01F0C0123091F52091320130918F
:1022F0003301A8E5BBE10E943B3C24EC36E340E01F
:1023000050E00E941F3C29013A0181E085B9F5E0C7
:10231000F4B980E00E946F07841995099A83898334
:1023200081E184B980E00E946F07841995099C833C
:102330008B8384E085B984E184B981E00E946F07D2
:10234000841995099E838D8389EC90E0AAC013308F
:1023500059F505B92AE024B980E00E946F07209161
:102360003201309133013695279538872F83821BB0
:10237000930B9A83898324B880E00E946F072F8192
:102380003885821B930B9C838B83D5B888E284B9F4
:1023900081E00E946F072F813885821B930B9E83FB
:1023A0008D838BEB90E07DC0143039F484E592E0AE
:1023B000E3DAB7DE81116DC275C01530B1F415B81E
:1023C00004B980E00E946F079A838983D4B881E0C2
:1023D0000E946F079C838B8334B882E00E946F0752
:1023E0009E838D838BED90E05CC0163051F504B96F
:1023F00005B980E00E946F072091320130913301CE
:10240000821B930B9A838983D4B8D5B881E00E944C
:102410006F072091320130913301821B930B9C8313
:102420008B8334B835B882E00E946F072091320167
:1024300030913301821B930B9E838D8387ED90E057
:1024400030C0173079F52091320130913301A8E581
:10245000BBE10E943B3CA50194010E94FD3B290188
:102460003A0105B9E3E0E4B980E00E946F078419FE
:1024700095099A838983D5B8FCE0F4B981E00E947C
:102480006F07841995099C838B8335B820E324B9A1
:1024900082E00E946F07841995099E838D8385EBE6
:1024A00090E06ADA10D889819A810E941C060E9405
:1024B00032068B819C810E941C060E9432068D810F
:1024C0009E810E941C0617B818B814B815B888EE7B
:1024D00093E006DD143011F08B3020F4C39484E0D7
:1024E000C812DFCE88EE93E0FBDCEFEFEE1AFE0AB7
:1024F000F8E0EF16F10409F0D0CEBECEC8D884E5DE
:1025000092E03ADA84E60E944307115019F009DE9E
:102510008111F4CF0BD88AEA90E02EDA23E04DE166
:102520006FEF809134019091350154DB0E94630A72
:1025300083EA90E021DA23E04DE16FEF80913B01E7
:1025400090913C0147DB82E08093410132DD1092A3
:102550001A010E94960A8FE990E00EDA60E082E0AC
:102560000E94BA24409087015090880160908901B0
:1025700070908A015C864B8661E082E00E94BA24FA
:102580008090870190908801A0908901B0908A0185
:102590009E868D8660E081E00E94BA2400918701CA
:1025A000109188011E830D8362E080E00E94BA24AE
:1025B00080918701909188019C838B8362E081E008
:1025C0000E94BA2480918701909188019A87898717
:1025D00061E080E00E94BA24E0908701F0908801D9
:1025E000FA82E982C2010E943106C4010E943106CA
:1025F000B801110F880B990B03E026E444EF01DAD0
:102600002F85213021F080913A01823031F482E02F
:10261000E80EF11CF886EF8204C0F886EF82109273
:102620003A018E010F5F1F4F6E01EFE0CE0ED11CFD
:10263000F801819191910A97853B9105D0F4EC15B1
:10264000FD05B9F741E5E42E43E0F42EF801608181
:102650000E5F1F4F6E5EC7010E94853DFFEFEF1AB0
:10266000FF0A0C151D0591F70E94630A80EC91E0AA
:1026700083D982E0809341019CDC0E9462382F85DF
:10268000213029F080913A01823009F0EBC00E949C
:10269000960A80E056D986E691E06ED982E051D95B
:1026A00084E290E069D920E4F22E10E03AE0832E33
:1026B000912CA12CB12CCCDC10921A0160E082E0AC
:1026C0000E94BA240091910120917F0130918001F4
:1026D0004091810150918201073F44F40F5FCA018C
:1026E000B901A50194010E94FD3BF6CF0093910131
:1026F00020937F01309380014093810150938201A8
:10270000073F09F097C0DA01C90180569109A10974
:10271000B10980399545A105B10508F08BC06091DC
:10272000930170919401CB018B569F4F8B32914056
:1027300008F080C01F5F153008F47DC088E593E085
:102740000E94933D0E94960A8DE190E015D98091F8
:102750009301909194010E941C060E94EC0718B806
:1027600081E087B980E284B982E00E947A07853DE2
:102770009340D4F714B8109231011092300182E0E6
:102780000E947A078C018091780190917901909351
:1027900031018093300182E00E947A077C01EE0CC7
:1027A000FF1C109231011092300182E00E947A07E2
:1027B000A0907801B0907901B0923101A0923001DF
:1027C000800F911F8C010E191F090E94630A86E178
:1027D00090E0D2D88AE593E00E94783DD82E95010A
:1027E000D8010E944A3C97010F2C000C440B550B5A
:1027F0000E941F3C13E01D0D120F612F8AE593E02C
:102800000E94853D812F012E000C990B0E941C0611
:102810000E94EC0782E080934101CBDB10923A01E9
:1028200081E593E00E94783D682F84E593E00E9463
:10283000853D18C010E00E94630A60917F0170918D
:102840008001809181019091820104E026E4409111
:102850009101D7D80E94200B88E20E944307FA9486
:10286000F11029CF89E180932E0180E00E94753B11
:102870000E94960A8AE091E07FD80E94630A8BE466
:1028800092E07AD810921A0182E08093410191DBA4
:1028900003C082E0C82E06CE2F96E2E10C94013DE3
:1028A00080913A0181110DC081E593E00E94783D4D
:1028B00061E0680F84E593E00E94853D81E08093AC
:1028C0003A010895EF92FF920F931F93CF93DF93F6
:1028D000D62FE82FF0E0EA59FD4FE491E8B9E7B9C7
:1028E00015B8E62FF0E0ED59FD4FE491E4B988E822
:1028F000E82E83E1F82ECE2FCC0F8D2F0E946F078C
:102900008C01C4B98E159F0510F47801F6CF892B80
:10291000D9F00E94710A86E491E02ED8D80120EA0D
:1029200036E841E050E00E94503C28E937EB40E0B7
:1029300050E00E94FD3BDA01C90122E041E467EF6B
:1029400049D917B818B814B8CDB7DEB7E6E00C947B
:102950000D3DA0E0B0E0EFEAF4E10C94E53C80E44A
:102960008AB98BB9C6E8C0937A001092C1000E9460
:102970002207D4B784B7877F84BF0FB6F894A89591
:1029800080916000886180936000109260000FBEAB
:10299000C093640088E380937E001092B00087E0CB
:1029A0008093B10078940E94BB0AD3FD63C580E197
:1029B00085BF84E080931101C0E04F9905C00E945B
:1029C0004207CF5FCC33C9F78FE59DE690930C01AA
:1029D00080930B01CF3130F080E69DE690930C019F
:1029E00080930B0110922F010E94D2279FE088E173
:1029F0000FB6F894A895809360000FBE9093600086
:102A0000CC33B9F0C0E192E4C92E91E0D92E24E68E
:102A1000E22E21E0F22E3CE0232EDDE040EFB42E4A
:102A200053E3A52E61E2962E72E1872EE0E23E2E60
:102A300036C00E9444328111FCCFE4CF823009F4C9
:102A400060C1833009F48AC18FEA92E00E94BC0C15
:102A500087E992E00E94BC0C0E94630A80911801F1
:102A6000805D0E944D0C8AE20E944D0C8CE391E047
:102A70000E94BC0C8DE792E00E94BC0C86E00E9494
:102A8000020C00E41FE1C7B94F9BFECFC80128DA52
:102A9000823308F4D1C40E9444328111FCCF0E94D9
:102AA000960A17B8D5DA0E94D2270E945D0AF4D49C
:102AB00080913D01882379F00E94630A8BE591E0C3
:102AC0000E94BC0C63E080913201909133018DD85B
:102AD00088EC0E9443074F9915C00E94470B80E481
:102AE00091E00E94BC0C17B883E00E94760763E077
:102AF0004AE09C01429FC001439F900D112475D86C
:102B00008CE3E7CF0E94630A0E94E42380911A01BC
:102B1000893021F50E94960A80E691E00E94BC0C63
:102B20000E94630A63E080915601909157015DD83D
:102B30000E94320663E0809158019091590155D866
:102B40000E94320663E080915A0190915B014DD85A
:102B50008AEC0E94430781E1F3DA69C484E593E0DB
:102B60000E94783D182F81E593E00E94783D181B64
:102B700010933A0180E0E4DA0E94470B89EC92E07E
:102B80000E94BC0C42E061E080E0FAD442E060E0E8
:102B900081E0F6D441E062E080E0F2D441E060E020
:102BA00082E0EED440E062E081E0EAD440E061E01F
:102BB00082E0E6D480911A0181110EC00E94E423C4
:102BC00060E082E00E94BA2461E082E00E94BA24C0
:102BD00060E081E00E94BA240E94960AD0924001EF
:102BE000C0923F0180911A01863069F485EC0E9401
:102BF000020C60E188EF1FD866E080E00E94500A76
:102C000080EA92E00EC08730F1F484EC0E94020C5E
:102C100060E188EF10D866E080E00E94500A89EAFF
:102C200092E00E94BC0C66E082E00E94500A84E7B9
:102C300091E00E94BC0C62E08091460190914701B6
:102C40000E94F50DF4C3883081F420918F018091AA
:102C5000900190E0820F911D029719F40E942C2A96
:102C6000F4C380E00E945A29E2C3833009F0B0C067
:102C700080911801813009F0E1CE80E00E94F106D8
:102C80006091970180919D011DDE80E70E94C90639
:102C900040E06091970180919D010E94853760938B
:102CA0007F0170938001809381019093820180E085
:102CB0000E94400B60917F017091800180918101A1
:102CC0009091820102E026E442EF0E94010D0E94F1
:102CD000340641E06091970180919D010E94853703
:102CE00060937F01709380018093810190938201B2
:102CF00026E442EF0E94010D81E391E00E94BC0CAA
:102D0000F4C282E30E944D0C82E291E00E94BC0C6E
:102D10009091970130919801931307C080E00E9431
:102D20000D0781E00E9404070CC020919D01809155
:102D30009E01281308C080E00E94FD0681E00E94E9
:102D4000140781E0A3CF321304C081E08093060111
:102D500032C0981379CEC09306012DC0A09206010F
:102D600080919D0190919801891303C021E02093E7
:102D700006014091970130919E01431302C0C09318
:102D8000060120919901821303C082E0809306011D
:102D900080919F01481302C03092060132130EC089
:102DA00080920601981761F083E30E944D0C82E245
:102DB00091E00E94BC0C0E94DF0697C2981302C0EB
:102DC0009092060180910601823208F03DCEECCF50
:102DD000843009F050C180917301882309F45DC0EB
:102DE00080915101882309F458C060914E0180916F
:102DF00050010E94BA2440907F0150908001609061
:102E00008101709082011091910160917201809115
:102E100070010E94BA248091420190914301A091D7
:102E20004401B09145014091640150916501609168
:102E3000660170916701843F21E09207A105B10509
:102E400038F4443F31E053076105710508F010EF95
:102E5000443F51406105710538F4843F9140A1051C
:102E6000B10510F0B09291018091910118130EC03C
:102E700080917F0190918001A0918101B0918201A8
:102E8000481659066A067B0618F005C018171CF488
:102E9000D093190102C020921901809173018823F7
:102EA00061F080915101882341F04F9906C09091C3
:102EB000190181E089278093190166E080E00E9472
:102EC000500A80EC0E94020C809119018C3051F460
:102ED00080E991E00E94BC0C809173018823A9F0E5
:102EE00080E711C0F0924001E0923F018FEC91E049
:102EF0000E944A0C88E891E00E94BC0C809151012C
:102F0000882319F08EE60E944D0C7ED8182F85304C
:102F1000A0F4A0913F01B0914001E82FF0E0E95604
:102F2000FE4F1D969C918081981711F062E001C0C0
:102F300060E086E991E00E94340C60E189EF0E9434
:102F40001B0E86E00E94260B8FE991E00E94BC0CCC
:102F5000E0913F01F0914001608171818281938114
:102F600003E020E04EEF0E94010D87E00E94260B57
:102F700089E40E944D0CE0913F01F091400186816F
:102F800097818031974270F085E60E944D0CE09168
:102F90003F01F0914001868197818051974297834C
:102FA000868303C083E60E944D0C0E943606E091A2
:102FB0003F01F091400122E041E46AEF8681978170
:102FC0000E94EA0D86E00E94260B88E791E00E94AD
:102FD000BC0CE0913F01F091400163E08481958158
:102FE0000E94F50D81E080934101E0913F01F09155
:102FF000400180859185892B91F085E00E94400BEE
:1030000084E091E00E94BC0CE0913F01F09140010E
:1030100022E041E46AEF808591850E94EA0DE0910B
:103020003F01F091400182859385892B91F085E0E5
:103030000E94400B8EEF90E00E94BC0CE0913F019B
:10304000F091400122E041E46AEF828593850E947D
:10305000EA0D153068F480E00E94400B812F0E9439
:10306000F10684E791E00E94BC0C812F0E94BB0610
:1030700043E462E438C1853009F041C166E080E094
:103080000E94500A8091190184FF09C080E50E94C6
:103090004D0CF0924001E0923F0102E004C08EE44A
:1030A0000E944D0C00E00E94340680911901182FF7
:1030B0001F70143061F48AEA91E00E94BC0C83EC2A
:1030C0000E94020C0023E1F18FED91E037C085FFF3
:1030D00005C084E40E944D0C0F5F03C085E40E948C
:1030E0004D0C1330B1F484EA91E00E94BC0C81ECE9
:1030F0000E94020C013019F487E392E01FC00230F5
:1031000019F483E492E01AC00330D1F48BE092E02A
:1031100015C08FEA91E00E94BC0C82EC0E94020C68
:10312000013019F489EF91E009C0023019F481E00F
:1031300092E004C0033021F489EE91E00E944A0C31
:103140000E9404108530A0F4A0913F01B09140018D
:10315000E82FF0E0E956FE4F1D969C91808198176C
:1031600011F062E001C060E086E991E00E94340C59
:1031700060E189EF0E941B0E86E00E94260B86E02C
:103180000E94260B8091190185FD1CC080E791E00B
:103190000E94BC0CE0913F01F091400162E0828509
:1031A00093850E94F50DE0913F01F0914001668505
:1031B00084850E94BA2486E00E94260B0E94D50CCA
:1031C00085E06EC08F70E0913F01F0914001843046
:1031D00039F0668584850E94BA240E94D50C13C0FC
:1031E00084819581892B79F080E090E00E94BC0C6D
:1031F000E0913F01F091400122E041E46AEF8481D7
:1032000095810E94EA0D60E086E00E94500A89E400
:103210000E944D0C84E60E944D0C0E943606E091FF
:103220003F01F091400122E041E46AEF86819781FD
:103230000E94EA0D8AE691E00E94BC0CE0913F01F9
:10324000F091400162E0828593850E94F50DE09146
:103250003F01F091400180859185803C9241F8F4D6
:1032600080E00E94400B89E40E944D0C84E60E949D
:103270004D0C0E94360622E041E46BEF80E090E0C6
:103280000E94EA0D8AE691E00E94BC0CE0913F01A9
:10329000F091400162E0808591850E94F50D80E00B
:1032A0000E94ED0C143009F4BDC000E080911801BB
:1032B0000817A0F4011103C080E00E94260B80E0F3
:1032C0000E94400B802F0E94F10684E791E00E944B
:1032D000BC0C802F0E94BB060F5FE8CF133009F0B3
:1032E000C5C043E467E485E4A0C080917A018823E7
:1032F00009F49DC0C7B917B880E00E94400B209127
:103300007A01222309F481C02130A1F48091610166
:103310000E948C0620916101213039F4209118011E
:10332000211103C00E94E22990C040E0692F0E9451
:103330009D287DC0909161018091620134E0839F5E
:10334000D0011124AC54BE4F44E0949FF0011124ED
:10335000EC54FE4F4D905D906D907C90408151817A
:1033600062817381441555056605770510F4182FA1
:1033700001C0192F223021F4890F13E0181B1CC043
:103380008091630194E0899FD0011124AC54BE4F19
:1033900024E0129FF0011124EC54FE4F4D905D90FB
:1033A0006D907C90408151816281738144155505F7
:1033B0006605770508F4182F712E769402E0011B3C
:1033C000111103C06624639402C082E0682E872D29
:1033D0000E94A10C8DE191E00E94BC0C802F0E9404
:1033E000A10C8DE191E00E94BC0C862D0E94A10CE5
:1033F00080E00E94260B81E0111180E00E94960679
:1034000082E087190E94960612C087E892E00E9427
:10341000BC0C0E94630A84EB92E00E94BC0C8FEA11
:1034200092E02ACB4FE367E48FE30E945F060091AE
:103430000B0110910C0127CB90911301933008F0F0
:103440002ACB81112CCB911121CB80913A01882379
:1034500051F00E94960A89E692E00E94AF0C80E14A
:1034600097E20E94700F0E944B1019CB44E467E46E
:1034700083E5DBCF0E945D0A84E792E00E94BC0CEA
:103480008BEC0E9443070E944B1080E090E0CDB788
:10349000DEB7E2E10C94013D0F931F93CF93DF93CE
:1034A00085E00E947A0785E00E9476078C01EC0196
:1034B000CC0FDD1FCC0FDD1FCA56DF4F1092380135
:1034C000C43883E0D80750F484EB91E00E94BC0C30
:1034D0000E94200B81E08093380126C083EC91E0AC
:1034E0000E94BC0C62E0CE010E94F50D0E943206E3
:1034F0000A3F86E0180790F40333164060F48DEB22
:1035000092E00E94BC0C0E94200B8DEC0E944307AD
:103510000E944B1009C084EC92E002C080EC91E064
:103520000E94BC0C0E94200BDF91CF911F910F9144
:103530000895CF93DF93DC019C01261B370BE0E05D
:1035400090E0B901690F711D672F7727920F260F41
:10355000371FBA016E0F711D672F7727E40FEB013C
:10356000CC0FDD1F4C0F5D1F6B3E28F4A217B30775
:1035700040F7CA0102C080E090E0DF91CF9108954A
:10358000A7E1B0E0E6ECFAE10C94E53C8E8B162F57
:10359000042FA895E62FF0E0ED59FD4F24912B87DD
:1035A000220F298B339634913A83E42FF0E0ED59C2
:1035B000FD4F44914B833396F490E82FF0E0ED59A2
:1035C000FD4F84918983880F8E87339694919F8BCA
:1035D00045B96B84642A64B897B998B9862F0E945C
:1035E00076079D878C87EB85E4B9812F0E9476074B
:1035F0001C0114B80E942B0715B864B8812F0E94D3
:1036000076076C857D850E94D8074C01FA81F7B951
:1036100018B82B813981232B2C8325B924B98E89A5
:103620000E9476070E94DE075C0115B80E942B07F6
:10363000498145B98E890E9476070E94DE076C0198
:10364000898184B98E890E9476070E94DE07782ED0
:10365000E92EB601C5010E94D8078032E1E09E073D
:1036600030F4F0E28F16F1E09F0608F48AC58C0C66
:103670009D1C2C853D85820F931F8816990620F48A
:10368000DD86CC86272C3E2C209151013091730190
:10369000822F90E0830F911D02974CF0213009F0AA
:1036A00070C590914E018091700198136AC5EB80AE
:1036B000EE0C39813E293A878C859D8584379105AA
:1036C00008F48BC1880F991F44962816390608F014
:1036D00084C19F8997B998B98B858E2984B9812F28
:1036E0000E9473076C01802F0E947A075C01E5B885
:1036F000812F0E9473079601295A3D4F18B8281749
:10370000390708F0AAC0EA81E7B9FA85F4B9F5B932
:10371000802F0E94730788349F4028F085E08093B3
:103720001A0182E204C085E080931A0184E280934A
:103730001901D0924701C0924601B501C6010E940D
:10374000E30790934D0180934C019601A0E1B7E20D
:103750000E943B3C209114013091150140E050E063
:103760000E94FD3B309349012093480189898E29AD
:1037700084B915B83F8937B938B9802F0E947A07C4
:103780006C01812F0E947307B6010E94E3079C0120
:1037900090934B0180934A01909119019F7094304E
:1037A00071F5409148015091490160914C0170912F
:1037B0004D01C901BEDE0097F1F0E4B84F898A815E
:1037C000482B47B9812F0E9473076C0117B89C01E1
:1037D000A0E1B7E20E943B3C20913B0130913C01CB
:1037E00040E050E00E94FD3BA901B60180914A01F2
:1037F00090914B019EDE909347018093460180910A
:1038000019018F70843009F4B4C418B89A81F92A68
:10381000F7B8E981E4B9FC81F5B98E890E94760791
:103820006C010E94DE077C01812F0E947A07A09024
:103830001D01B0901E01BC01C6010E94E307950165
:10384000DC010E943B3C970140E050E00E94FD3BC0
:1038500030934701209346018CC42A8127B93A85C9
:1038600034B935B98E890E9473076C01802F0E948C
:103870007A075C01498145B98E890E947307895A8C
:103880009D4F8C159D0508F07CC48F8988B987B938
:10389000802F0E947307813D934028F485E0809338
:1038A0001A0182E304C085E080931A0184E38093C7
:1038B0001901B601C5010E94E30790936F0180933F
:1038C0006E01C6010E94DE079C01A0E1B7E20E94E2
:1038D0003B3C20911D0130911E0140E050E00E94D0
:1038E000FD3B30936B0120936A0118B8FA81F7B958
:1038F0008E858E2984B985B98E890E947A076C01DC
:10390000802F0E947307B6010E94E3079C019093E9
:103910006D0180936C01909119019F70943091F525
:1039200040916A0150916B0160916E0170916F013D
:10393000C901FFDD009711F1E5B8E4B82F8928B976
:103940002A80222A27B88E890E9473070E94DE07E8
:103950006C0117B89C01A0E1B7E20E943B3C2091AA
:1039600034013091350140E050E00E94FD3BA90157
:10397000B60180916C0190916D01DBDD909369013E
:1039800080936801809119018F70843009F4CFC150
:103990003F893F2938B937B915B84C8144B98E8968
:1039A0000E9476075C01812F0E947A077C01C090FB
:1039B0001401D0901501BC01C5010E94E3079601D6
:1039C000DC010E943B3C970140E050E00E94FD3B3F
:1039D0003093690120936801AAC118B88A8187B918
:1039E000998195B9EA85E4B98E890E947607988B0A
:1039F0008F870E94DE079F838E83802F0E947A0725
:103A0000998788872101F4E64F0E511C2E813F8152
:103A1000B10142165306D8F4C9010E94E3076C01B4
:103A200020911D0130911E0140E050E060E871EAF4
:103A300083E09CE10E94FD3BD6010E94503CE8855A
:103A4000F9854F01A12CB12CA501940123C08E81D1
:103A50009F810E94E3076C01FC81F4B98E890E946A
:103A60007607988B8F870E94DE079F838E83802F37
:103A70000E947A0799878887BC01C6010E94E307E4
:103A80009C01A4E6B0E00E943B3CE885F9859F01DB
:103A900040E050E00E94FD3B49015A0114B815B8BE
:103AA000FF89F8B9F7B981E00E94430764B8812F14
:103AB0000E9476077B847E288F359D4008F43DC1A7
:103AC00074B8812F0E9473076C01802F0E947A07BF
:103AD0009B8B8A8B8E890E947A079D8B8C8B8A891F
:103AE0009B89813D974008F4B1C084E080931A011E
:103AF0008DE08093190176012C143D0410F4E21836
:103B0000F3084090140150901501612C712C60E86D
:103B100071EA83E09CE1A30192010E94FD3BD70181
:103B20000E94503CEA89FB899F0140E050E00E94DE
:103B3000FD3B80917301882369F08091640190912D
:103B40006501A0916601B091670182179307A407F0
:103B5000B50708F520936401309365014093660131
:103B6000509367019601A0E1B7E20E943B3CA3019C
:103B700092010E94FD3B30936B0120936A016A8998
:103B80007B898C899D890E94E307909369018093CA
:103B9000680181E001C080E04091640150916501BD
:103BA0006091660170916701481559056A057B05AA
:103BB00038F58092640190926501A0926601B092FE
:103BC0006701688579858F8598890E94E3079093BE
:103BD0006901809368012E813F81A0E1B7E20E94D4
:103BE0003B3C20911D0130911E0140E050E00E94BD
:103BF000FD3B205F384D30936B0120936A0103C079
:103C0000882309F499C3C0901401D0901501E12CC8
:103C1000F12C9101A0E1B7E20E943B3CA701960183
:103C20000E94FD3B30936D0120936C012C853D85F6
:103C3000A0E1B7E20E943B3CA70196010E94FD3B38
:103C400030936F0120936E0181E076C3F1E62F1669
:103C5000310408F072C021EDC21627E0D20608F444
:103C60006CC085E080931A0182E180931901C6013E
:103C700086509F4FEC89FD898E179F0720F483E1C2
:103C80008093190116C0E0901401F0901501B6015F
:103C90008C899D890E94E3079701DC010E943B3CCF
:103CA000960140E050E00E94FD3B30936901209373
:103CB0006801FA81F7702F2E802F806480937C003A
:103CC0002BE02983CC24C394D12CEE24EA94A3E0E6
:103CD000FA2EA89561E08B8160D574B886B18221F7
:103CE000E9F33B8534B980917A00806480937A004F
:103CF00080917A0086FDFCCF8091780090917900C8
:103D0000F701E81BF90BCE0EDF1EF981F150F983A4
:103D1000F111DFCFC601880F991F880F991F69E045
:103D200070E00E94D63B70936F0160936E018091AA
:103D300073018F5F8093730187CF74B8E5B8812FCB
:103D40000E9476075C01802F0E947A079F838E83F2
:103D50000E94DE077C014A145B04A8F4B101C5018E
:103D60000E94E3076C01209114013091150140E09D
:103D700050E060E871EA83E09CE10E94FD3BD601DF
:103D80000E94503C1DC064B82B8125B9812F0E9430
:103D900076075C01802F0E947A079F838E830E94A2
:103DA000DE077C01C5012A143B0410F48219930933
:103DB000B7010E94E3079C01A4E6B0E00E943B3CEF
:103DC000970140E050E00E94FD3B29013A013A8111
:103DD00037B918B84C8144B945B98E890E94760725
:103DE0006C01802F0E947A074C01812F0E947A0774
:103DF0007C0180E3C81681E1D80608F0C0C1998132
:103E000095B98E890E94760799878887E981E4B9F8
:103E10008E890E947607988B8F8715B881E00E9463
:103E20004307F981F5B98E890E9476072F85388975
:103E30002034364008F05FC08133914108F45BC004
:103E4000C6018A569F4F288539852817390708F0FB
:103E500052C086E080931A01809151018F5F809358
:103E60005101B701C4010E94E30790934701809379
:103E70004601B701C6010E94E30790934D0180936C
:103E80004C0114B815B83A8138B981E00E94430753
:103E9000498144B98E890E947607853F910508F0D3
:103EA0005AC28C8184B9802F0E947607813D93404D
:103EB00008F451C28E890E947A078D3D924008F421
:103EC0004AC2298124B98E890E9476078D3D92408D
:103ED00008F441C2498145B981E00E94430715B801
:103EE0008E890E947607853F910508F034C287E0ED
:103EF00080931A0130C28A8187B99B8194B995B9A0
:103F000081E00E944307EA85E4B9E5B98E890E9401
:103F100076076C010E94DE077C01802F0E947A07E1
:103F20009D838C830E94DE0799878887812F0E945A
:103F30007A074C01288539852E3F394008F4B0C0F6
:103F400084E080931A018CE080931901B101C701CC
:103F50000E94E3076C0120911D0130911E0140E099
:103F600050E060E871EA83E09CE10E94FD3BD601ED
:103F70000E94503CE885F9859F0140E050E00E9496
:103F8000FD3B80915101882369F08091420190911D
:103F90004301A0914401B091450182179307A40702
:103FA000B50720F52093420130934301409344012B
:103FB00050934501B4018C819D810E94E307909349
:103FC0004701809346019701A0E1B7E20E943B3C84
:103FD00020911D0130911E0140E050E00E94FD3B08
:103FE000309349012093480181E001C080E0409175
:103FF0004201509143016091440170914501441583
:1040000055056605770528F5409242015092430117
:104010006092440170924501B5018E819F810E949A
:10402000E30790934701809346019501A0E1B7E231
:104030000E943B3C209114013091150140E050E07A
:104040000E94FD3B205F384D309349012093480189
:1040500003C0882309F480C19101A0E1B7E20E9466
:104060003B3C209114013091150140E050E00E944A
:10407000FD3B30934B0120934A012C853D85A0E107
:10408000B7E20E943B3C20911D0130911E0140E0AF
:1040900050E00E94FD3B30934D0120934C015BC1E9
:1040A000F1E62F16310408F06AC029E4E2162DE08B
:1040B000F20608F464C085E080931A0182E08093E0
:1040C0001901C40186509F4F8C159D0520F483E093
:1040D0008093190115C0A0901D01B0901E01B4017C
:1040E000C6010E94E3079501DC010E943B3C970159
:1040F00040E050E00E94FD3B309347012093460191
:104100003F893770D32E802F806480937C004BE0F2
:104110004A83EE24E394F12CA89560E08B813DD393
:104120008A8584B985B986B18D21E9F7998194B9D9
:1041300080917A00806480937A0080917A0086FD75
:10414000FCCF8091780090917900E80EF91EEA8109
:10415000E150EA83E111E0CFC701880F991F880F72
:10416000991F69E070E00E94D63B70934D01609307
:104170004C01809151018F5F80935101ECC017B8C1
:1041800018B814B815B817B8F7EC2F16F1E03F06B9
:1041900008F4C4C018B82E8524B908ECEA803F8919
:1041A000E32AE7B881E00E9443074A8147B98E8934
:1041B0000E947A07429710F0015099F78E8584B9D2
:1041C00085B961E08B81E9D28E890E9476074C0126
:1041D000998994B915B8EF89E7B9E8B960E08B819E
:1041E000DCD2812F0E9476070E94DE076C01FB85DE
:1041F000F4B9812F0E947A077C018E890E9476078C
:10420000B7010E94E3077C01812F0E947A075C01BD
:104210008E890E947607B5010E94E30797012C5E04
:104220003F4F2817390708F47CC018B82A8127B9EE
:10423000398134B935B961E08B81AFD2812F0E94C9
:104240007A075C018E890E947607B5010E94E30718
:104250005C01E816F90650F44E8544B945B98E89DB
:104260000E9476079C01640175010FC0898984B999
:1042700015B89F8997B998B960E08B818ED2812F4C
:104280000E9476070E94DE079C01E8EEEE16E3E04E
:10429000FE0630F4C70164E670E00E94D63B06C01B
:1042A000B70154E0769567955A95E1F7C7018759AC
:1042B00091098938914190F52E153F0578F5C60191
:1042C00043E0969587954A95E1F7893C910510F072
:1042D00088EC90E08C0D9D1D8E159F05F8F46C15F3
:1042E0007D05E0F480911A01833018F483E0809317
:1042F0001A0120911801822F90E0FC01E956FE4F2F
:104300003E8930831683880F991FFC01ED55FE4FBF
:10431000F182E0822F5F2093180103C0612F8E8904
:104320002AD017B818B814B815B88EE20E944D0CF0
:104330006796E2E10C94013D909173019F5F909329
:104340007301882371F300937001109371014E89FA
:1043500040937201E6CF81E0909151019F5F90936D
:1043600051018823F1F200934E018E8980934F0111
:1043700010935001D6CFA0E0B0E0E1ECF1E20C9454
:10438000E73CA895462F50E0FA01ED59FD4F949077
:1043900033969491A82FB0E0FD01ED59FD4FE490C4
:1043A0003396F490709173012091510130E0270F02
:1043B000311D232B09F0ECC1A895209120013091EB
:1043C0002101220F331F220F331F3093330120931B
:1043D00032012091780130917901220F331F220F91
:1043E000331F30933101209330012EEB20932E01A7
:1043F000C0911801E7E9F1E070E04A0F5B1F7C17FC
:1044000059F02191A58130E02A0F311D241735077D
:1044100009F451C07F5FF3CFD62FC82F18B897B9D2
:10442000E4B8E5B8B8E1BB2EC12CD12C8D2F0E9489
:104430007607782E692E8C2F0E947A078C018C19B2
:104440009D0997FF03C0919581959109039734F0D9
:10445000A895BA946801B110E9CF2DC0EE0C15B83B
:10446000E4B88C2F0E9476078135910520F5E5B8D8
:104470008C2F0E9476076C01F7B8F8B815B894B87D
:10448000A8E18A2EA12CB12C8C2F0E947607582EE1
:10449000492E8D2F0E947A077C018A199B0997FF6C
:1044A00003C09195819591090397CCF0A8958A94C2
:1044B00057018110E9CF80912001909121019093C3
:1044C000330180933201809178019091790190932A
:1044D00031018093300189E180932E0159C1990CFB
:1044E00094B88D2F0E9476075C01003C84E4180785
:1044F00030F425E8C21621E0D206E8F605C080EBCC
:10450000C8168DE4D806B8F624EAE21622E0F206D0
:1045100008F06CC088E9A816B10468F2C6010E94D0
:10452000DE07AC019601A8E9B7EB0E943B3C9A017B
:1045300040E050E00E94FD3B29013A01C5010E9484
:10454000DE079C01A8E9B7EB0E943B3C850120E017
:1045500030E0A90198010E94FD3B88E7C8168FE072
:10456000D80680F4D301C201F2E0880F991FAA1F78
:10457000BB1FFA95D1F7BC01CD01620F731F841FD9
:10458000951F14C088E7A8168FE0B806B0F4DA01CA
:10459000C901E2E0880F991FAA1FBB1FEA95D1F756
:1045A000BC01CD01640D751D861D971D25E030E011
:1045B00040E050E00E94FD3B0CC0D301C201820FDD
:1045C000931FA41FB51F9C01AD01569547953795C4
:1045D0002795A4E6B0E00E94503C2B013C012CEA58
:1045E000420E2DE0521E611C711C79C0672D762D84
:1045F0000617170708F4B801C52CD42CCE14DF0415
:1046000008F467010617170708F48B01A0901D0135
:10461000B0901E01C8010E94E3079501DC010E94D1
:104620003B3C2B013C01C8010E94DE079C0140E09D
:1046300050E0C301B2010E94FD3B29013A01CE14B2
:10464000DF0408F47601A0901401B0901501B701C1
:10465000C6010E94E3079501DC010E943B3C470133
:10466000A12CB12CA50194010E94FD3B08378FE0DD
:10467000180780F4D301C20162E0880F991FAA1FB6
:10468000BB1F6A95D1F7BC01CD01620F731F841F58
:10469000951F14C088E7E8168FE0F806C0F4DA0129
:1046A000C90132E0880F991FAA1FBB1F3A95D1F7A5
:1046B000BC01CD01640D751D861D971D25E030E000
:1046C00040E050E00E94FD3B29013A0108C0420E43
:1046D000531E641E751E76946794579447941091E8
:1046E0001A01143008F0E7CEC1500C2F0D0F202F07
:1046F00030E0E901C25ADE4F8881220F331F220FBA
:10470000331FF901EC54FE4F8823D9F1C080D180CA
:10471000E280F380A30192012C193D094E095F0943
:1047200057FF07C050954095309521953F4F4F4F0B
:104730005F4FAAE0B0E00E94503C24E6C20ED11CBC
:10474000E11CF11CA7019601240D351D461D571DC6
:104750000E94FD3B232B242B252B09F0ACCE1330DC
:1047600019F081E080931A0182E0888380917A01B8
:10477000E82FF0E0EF59FE4F00838F5F80937A01BE
:104780009ACE408251826282738281E0888393CE86
:10479000CDB7DEB7E0E10C94033DCF93C82FC095B1
:1047A00095B160FF02C0982B01C09C2395B994B1CC
:1047B000892B84B90E94420784B18C2384B985B1C6
:1047C000C823C5B9CF910895AF92BF92DF92EF92FF
:1047D000FF920F931F93CF93DF931AE08FE3D82EAE
:1047E00009E017B818B815B8D4B880E00E94760769
:1047F0007C0181E00E947A07EC0182E00E947A0746
:104800009C0180911A01893079F417B814B8F0929C
:104810005701E0925601D0935901C093580130934B
:104820005B0120935A015CC084E0E816F10440F477
:10483000C430D10568F42430310538F391E00CC060
:1048400091E088EEE81683E0F80618F090E001C0E9
:1048500091E0C83ED34008F49260283E334008F40B
:10486000946097B9C0E0D0E0A89580E00E946F07FF
:104870005C0181E00E947A077C0182E00E947A0755
:1048800024E1A21625E0B20608F4389A24E1E216E3
:1048900025E0F20608F4399A843125E0920708F4FD
:1048A0003A9A26E0A216B10430F426E0E216F104AA
:1048B00010F4069738F02196C43F81E0D807A1F69E
:1048C00000931A01E12CF12CEC16FD0631F00E9448
:1048D00031072FEFE21AF20AF7CF115009F081CF1A
:1048E000DF91CF911F910F91FF90EF90DF90BF90DC
:1048F000AF900895CF92DF92EF92FF92CF932091E5
:104900007F01309180014091810150918201C091DD
:1049100091018AE0C82ED12CE12CF12C8C2FCF5F95
:10492000213A96E8390791E04907510538F0CA0164
:10493000B901A70196010E94FD3BF0CF8093910140
:10494000A0913201B09133010E94503C28E833E13C
:1049500040E050E00E94FD3B20937F0130938001B6
:104960004093810150938201CF91FF90EF90DF90AF
:10497000CF9008958F929F92AF92BF92CF92DF9285
:10498000EF92FF921F93CF93DF93982F990F980F79
:104990002FEF260F920F90935301E82FF0E0ED597F
:1049A000FD4FD491262F30E0F901ED59FD4FF490E1
:1049B000F901EA59FD4FD49090911A01913009F410
:1049C0009DC220911801E7E9F1E0DF0190E0921724
:1049D00091F016963C911697631309C03C9183138E
:1049E00006C0448555854C3D554008F487C29F5FFD
:1049F00011963296ECCF162FC82F10928C01109280
:104A00008B0181EF8093910110927F0110928001C0
:104A10001092810110928201D7DE18B8D7B8F4B88D
:104A2000F5B88C2F0E947A075C01812F0E947A07CB
:104A3000A81AB90A14B81092550110925401809125
:104A4000540190915501843F914008F0A9C0D5B917
:104A5000D4B90E942B0714B815B80E943207A89544
:104A60008C2F0E947A077C01EA18FB088091540180
:104A7000909155018E37910528F08BE4E816F104EA
:104A80000CF48EC080915401909155012DE2E216F4
:104A900021E0F20634F4019690935501809354017D
:104AA000CECF892B09F0A1C185E1E81685E0F80693
:104AB0000CF49BC189DE15B887E087B918B8FD2EC4
:104AC000FF0CF4B880E480937B0084E580BF8C2FDA
:104AD000806480937C0086E180937A000E94350791
:104AE000109255011092540110928000109285008E
:104AF0001092840087E286BB81E280936F0081E0A0
:104B000080937C01F5B890911A01809381009530D3
:104B100009F04BC081E090E00C2E01C0880F0A9490
:104B2000EAF78095877087B9F89483B7817F83BF50
:104B300080917C01882389F083B7816083BF78945A
:104B4000889583B78E7F83BFF894A8958091540190
:104B5000909155018034964059F7789410928100D5
:104B6000E0908600F090870010926F0086E98093B5
:104B70007A0014B815B88C2F0E947A07209136015C
:104B800030913701821B930B0C9690939401809384
:104B9000930180915401909155018032934038F0F7
:104BA00017B818B814B815B8A9C1D7B8BDCF809137
:104BB00054019091550190938A0180938901F0925C
:104BC0008801E092870184EF8093910180915401E4
:104BD0009091550182349105C8F0609187017091E0
:104BE00088018091890190918A0124E630E040E0BB
:104BF00050E00E94FD3B2093870130938801409351
:104C0000890150938A0186EF80939101A0917D01E3
:104C1000B0917E01209187013091880140918901F6
:104C200050918A010E94503C20E233E040E050E085
:104C30000E94FD3B209387013093880140938901B6
:104C400050938A0120937F0130938001409381012A
:104C5000509382014FDE80919101843F09F070C032
:104C6000C0907F01D0908001E0908101F09082019E
:104C700080EAC8168FE0D806E104F104C0F4A70169
:104C800096012C543F4F4F4F5F4F60EA7FE080E02A
:104C900090E00E94FD3BC20ED31EE41EF51EC092A2
:104CA0007F01D0928001E0928101F0928201C09058
:104CB0007F01D0908001E0908101F0908201C114C9
:104CC000D10421E0E206F10428F4D092C501C0929B
:104CD000C40106C081E090E09093C5018093C401B7
:104CE0008091530190E08F5A9C4F0E94783D90E054
:104CF000A0E0B0E08C159D05AE05BF0568F4C81AAC
:104D0000D90AEA0AFB0AC0927F01D0928001E092A0
:104D10008101F092820114C034E1C30ED11CE11C68
:104D2000F11CC816D906EA06FB0610F40E945014BE
:104D300010927F01109280011092810110928201E5
:104D4000D4B980917F0190918001A0918101B091AF
:104D500082014997A105B10508F422CFC12CD12CBD
:104D600080911801882329F080911A01853009F07B
:104D700017CF88E080931A01809191019091920160
:104D80009817C4F089130CCF80907F019090800118
:104D9000A0908101B09082014091830150918401E3
:104DA0006091850170918601481559056A057B055A
:104DB00008F0F6CE40917F01509180016091810111
:104DC0007091820140938301509384016093850127
:104DD0007093860180939201D0928E01C0928D01D2
:104DE00010938F01C0939001DBCEC701C12CD12C51
:104DF00020915401309155012C153D0560F00E9421
:104E00002C078C2F0E947A078A199B09A8952FEFEF
:104E1000C21AD20AEDCF5701A81AB90A1A141B04F4
:104E20009CF439ECA316B1040CF0BACE28EE33E0B2
:104E3000D5010E944A3C97010F2C000C440B550BE6
:104E40000E94FD3B690102C0C12CD12C809154010C
:104E5000909155010196A0E0B0E080938701909376
:104E60008801A0938901B0938A01C7018A0D9B1D17
:104E70000E943F082091870130918801409189016B
:104E800050918A01DC010E94503C6093870170932D
:104E900088018093890190938A0160937F017093C8
:104EA0008001809381019093820187EF809391012B
:104EB00021DD80907F0190908001A0908101B090D1
:104EC000820184E393E00E94783DA8EEB3E0A81B42
:104ED000B10987FDB395A50194010E945A3C24E6CF
:104EE00030E040E050E00E94FD3B20937F01309392
:104EF0008001409381015093820132CFDF91CF91A5
:104F00001F91FF90EF90DF90CF90BF90AF909F9058
:104F10008F9008951F920F920FB60F9211248F93C6
:104F20009F93B59904C080917C01811109C0B59B04
:104F300010C080918600909187008A3F910548F4C7
:104F40008091540190915501019690935501809361
:104F500054019F918F910F900FBE0F901F90189545
:104F60001F920F920FB60F9211248F939F9310925E
:104F70007C01B09B10C080918600909187008A3F91
:104F8000910548F4809154019091550101969093B8
:104F90005501809354019F918F910F900FBE0F90F8
:104FA0001F901895A0E0B0E0E8EDF7E20C94EB3C20
:104FB00088E893E19093210180932001909333013D
:104FC000809332018EEB80932E0118B880E187B96F
:104FD0000E943A0717B884E00E947607AC018B5C08
:104FE0009840833F9140A0F481E080933D0120915F
:104FF000320130913301AFEBB9E00E943B3C9A01A2
:1050000040E050E00E94FD3B3093210120932001BD
:10501000809120019091210190933301809332017E
:105020008EE00E947A078EE00E9476079093370107
:10503000809336010E94EC07C7DB18B8C1E0C7B9FE
:1050400085E185B9C4B980E00E9476078C0182E0D1
:10505000D82ED7B8D4E0D4B981E00E947607080FE3
:10506000191FD7B990E1C92EC4B882E00E94760713
:10507000080F191F15B8C8B9C7B9C4B980E00E9494
:1050800076070E94DE077C01D8B8D7B8D4B981E092
:105090000E9476070E94DE07E80EF91ED8B9D7B93C
:1050A000C4B882E00E9476070E94DE07E701C80FBD
:1050B000D91F17B818B814B82091320130913301B4
:1050C0006901CC0CDD1CC20ED31EC01AD10ACC1A49
:1050D000DD0AE12CF12C9801A0E9BAE10E943B3CE9
:1050E000A70196010E94FD3B49015A0130933C0102
:1050F00020933B019E01A0E9BAE10E943B3CA7013D
:1051000096010E94FD3B30933501209334012057D6
:10511000354E30931E0120931D0180E7881A85EEDD
:10512000980A909215018092140189E180932E01D2
:10513000CDB7DEB7ECE00C94073DCF92DF92EF9253
:10514000FF920F93CF93DF93F82EC62FD42F0E9498
:10515000A10C8DE191E00E94BC0CFBD16C2F8F2D36
:105160000E94F539C090C801D090C901E090CA01F1
:10517000F090CB018091220187FD05C0C114D104BC
:10518000E104F10421F089E191E00E94BC0C8C2F34
:105190000E94A10CC114D104E104F10431F00E9479
:1051A0003206809161010E949606DD2351F08091C4
:1051B0003E01813130F490E08B5A9C4F0E94BC0C30
:1051C00002C00E94200B80E00E94400BCD28CE2818
:1051D000CF28D9F06091C8017091C9018091CA01AE
:1051E0009091CB0103E028E447EF0E94010D8CE28F
:1051F00091E00E94BC0C8AE693E00E94803D23E08F
:1052000046E464EF0E94EA0D1AC0809161010E9499
:105210009606809122018E3F94F48AE491E00E94E8
:10522000BC0C6091AF017091B0018091B10190917F
:10523000B20103E028E4409122010E94010D809117
:10524000C0019091C101A091C201B091C301892B0D
:105250008A2B8B2BF1F080E00E94400B6091C00103
:105260007091C1018091C2019091C30104E028E4D2
:1052700040E00E94010D87E291E00E94BC0C23E017
:1052800040E26FEF8091C6019091C7010E94EA0D44
:1052900007C080E00E94260B80914101811102C06D
:1052A0000E94200BDF91CF910F91FF90EF90DF9044
:1052B000CF900895EF92FF920F931F93CF93DF93B8
:1052C000182F0E945D0A80918F010E94A10C86E632
:1052D00091E00E94BC0C6ED360918F01809190018F
:1052E0000E94A208EC0190938C0180938B01E090C6
:1052F0008D01F0908E01CA3F8FEFD80720F48EE128
:1053000091E00E94BC0C809190010E94A10C11239D
:1053100059F090913E0181E1891B0E94470A89E67C
:1053200090E00E94BC0C02C00E94200B0E94630A05
:105330006091830170918401809185019091860133
:1053400004E026E4409192010E94010DCA3FDF4F24
:1053500068F485E591E00E94BC0C22E04DE16EEF1F
:1053600080918B0190918C010E94EA0D0E94200B8C
:105370000E946A0AE114F10469F08EE491E00E944F
:10538000BC0C22E045E26FEF80918D0190918E017F
:105390000E94EA0D0E94200BCDB7DEB7E6E00C9428
:1053A0000D3D8F7021F40E94710A0C944C1A0895DF
:1053B0008F3021F490913801913011F08F5F089572
:1053C00080E00895CF9384E790E00E94AF326AE0D6
:1053D00080E00E94500A8FE593E00E94BC0CC0E080
:1053E0000E94281060E082E00E94BB2162E080E021
:1053F0000E94BB210E945D0A80917A01882329F0D6
:1054000041E062E080E099DE12C084E790E00E9413
:10541000BC0C8FE593E00E94BC0C0E94630A8FE3F2
:105420000E944D0C80E00E94260B0E94200B8C2FC6
:10543000B8DF88EE93E00E94700F811109C080915F
:105440001301843028F48C2FB3DFC82F8A3F40F239
:105450000E94960ACF9108950F931F93CF93DF93E5
:10546000C0E0D8E012EF01E10E94281060E082E085
:1054700081DAD0931A0180919101843FE1F4809107
:105480007F0190918001A0918101B09182018436C9
:105490009105A105B10578F440E060E082E00E944A
:1054A000853760937F017093800180938101909391
:1054B00082011093910180919101823FACF0809321
:1054C000920180917F0190918001A0918101B09122
:1054D00082018093830190938401A0938501B0930E
:1054E000860181E0E7DE1CC00E945D0A8DE690E047
:1054F0000E94BC0C80913E01902F981B892F0E9426
:10550000470A89E690E00E94BC0C0E94630A8FE380
:105510000E944D0C0E94200B0E946A0A0E94200BE0
:105520008C2F3FDF88EE93E00E94700F81110AC03C
:1055300080911301843030F48C2F3ADFC82F8A3FDA
:1055400008F492CF0E94960ADF91CF911F910F919C
:105550000895A4E1B0E0EFEAFAE20C94E53C82E0C1
:105560008093220180911A01813009F01FC280913D
:105570007A01813009F01AC20091610124E0029F92
:10558000F0011124EC54FE4F80819181A281B381FE
:10559000893032E59307A105B10508F007C24C0137
:1055A00010E0802F123028F40E948C06582E492ECD
:1055B00003C00E948C062C01E42DF0E0EA59FD4F57
:1055C0002490852D90E0FC01ED59FD4FE49115B834
:1055D00018B820EF82169104B0F410FD14C0A0900A
:1055E0001401B090150130E9A31A3AE1B30A21E0A1
:1055F00030E0052C02C0220F331F0A94E2F7C901E4
:10560000822987B906C0E4B927B8A0901401B090E8
:105610001501F4E13F2E852D0E9473073C01842D76
:105620000E947A0734E06316710410F4049718F0AE
:105630003A943110F0CF80E480937B0094E590BFE2
:10564000852D806480937C0026E120937A00E12CF4
:10565000F12C10928000109285001092840037E2A5
:1056600036BB0E943507812F8170382E10FD05C092
:1056700081E88093810028B808C028B80E943E07BE
:1056800090E296BB81E88093810086B385FF12C0CB
:1056900018B81092810020E226BB2091860030913C
:1056A00087006901409184005091850024173507D7
:1056B00070F014C080FFE9CF31E036BBA8959701A8
:1056C0002F5F3F4F790120353105F9F6E1CF80FF9B
:1056D00005C081E086BB9FEFE91AF90A86E980934D
:1056E0007A00E4E12E2E852D0E9473073C01842D63
:1056F0000E947A0724E06216710410F4049718F0EF
:105700002A942110F0CF40903B0150903C01480C6E
:10571000591C4A0C5B1C209116013091170180E93D
:10572000A8168AE1B806B0F491EEC916D104E104D6
:10573000F10438F4C60165E070E00E94D63B645184
:1057400001C069E128523109261B310967FD3395F3
:1057500086E009C0C20160EB76E30E94D63B87E099
:10576000860F285D3F4F90E0A0E0B0E08C159D05CE
:10577000AE05BF0528F4C81AD90AEA0AFB0A03C015
:10578000C12CD12C7601332029F082E2C80ED11C25
:10579000E11CF11C90E5E916F10418F0C12CD12CA4
:1057A00076018BE0C816D104E104F10428F091E001
:1057B000C91AD108E108F108409132015091330132
:1057C000612C712CA8EEB3E00E943B3C698B7A8B74
:1057D0008B8B9C8B9501DA010E943B3CA3019201CB
:1057E0000E94FD3B4427552769897A898B899C89CA
:1057F0000E94FD3BC9010E947E08FC01A3019201A9
:10580000C701B6010E94BB3B2B013C01CF01A0E0C8
:10581000B0E073E0880F991FAA1FBB1F7A95D1F7DC
:10582000BC01CD016B5F7F4F8F4F9F4F2AE030E06F
:1058300040E050E00E94FD3BC301B2010E94FD3BED
:10584000E12FF0E0A1E0B0E0AC0FBD1F84E0189FB5
:10585000A00DB11D11242D933D934D935C9313978F
:10586000311016C09CE0C916D104E104F10480F0A7
:105870003196EE0FFF1FEE0FFF1F81E090E08C0FBF
:105880009D1FE80FF91F20833183428353831F5FDD
:10589000A8951F5F143008F484CE18B884E00E94E5
:1058A000430791E00D811E812F81388549815A81FE
:1058B0006B817C81401751076207730708F090E005
:1058C0000D851E852F85388949855A856B857C8590
:1058D000401751076207730710F483E001C082E0AC
:1058E000E92FF0E0EE0FFF1FEE0FFF1F21E030E089
:1058F0002C0F3D1FE20FF31FD90134E0839FA00D51
:10590000B11D11240D911D912D913C91408151812A
:1059100062817381041715072607370708F0892F5E
:10592000E1E0F0E0EC0FFD1F94E0899FE00DF11D38
:10593000112440815181628173814093AF01509362
:10594000B0016093B1017093B20180FD08C020EFF7
:105950008216910420F48BEF8093220117C08CEF04
:1059600080932201CB01BA016B5F7F4F8F4F9F4F16
:105970002AE030E040E050E00E94FD3B2093AF0180
:105980003093B0014093B1015093B2018091AF01C7
:105990009091B001A091B101B091B201892B8A2BF5
:1059A0008B2B11F41092220117B814B86496E2E11F
:1059B0000C94013DA0E0B0E0E0EEFCE20C94EB3C86
:1059C00080918D0190918E01892B09F09BC0E0910F
:1059D0008F01F0E0EA59FD4FD491E0919001F0E0A1
:1059E000ED59FD4FC4910E94E42318B815B8D7B9FA
:1059F000C4B9809190010E947A078C01D0919201E4
:105A00008CE08D0F843008F07DC0809183019091EF
:105A10008401A0918501B0918601D15F2AE0822E98
:105A2000912CA12CB12CBC01CD016B5F7F4F8F4F0E
:105A30009F4FA50194010E94FD3B69017A01DA01A3
:105A4000C901DF5FD73079F729E8C21623E1D20612
:105A5000E104F10408F056C0059708F453C0C5B935
:105A6000C4B9C0E0D0E0CC15DD0520F40E943C07AD
:105A70002296F9CF14B815B8A89585E080932E0129
:105A8000809190010E947A070817190720F4EC0111
:105A9000C01BD10B02C0C0E0D0E0A12CB12CAC14D3
:105AA000BD0430F40E943C078FEFA81AB80AF7CF64
:105AB000809190010E947A0729E120932E01A895F8
:105AC0000817190718F4801B910B02C080E090E0C2
:105AD0008C179D0788F49E01281B390B69F0A4EFF1
